:100000000C94C7000C94F0000C94F0000C94F000D9
:100010000C94F0000C94F0000C9406020C94F00088
:100020000C94F0000C94F0000C94F0000C94D807A1
:100030000C94F0000C94F0000C9437070C94F00032
:100040000C94F0000C94F0000C94F0000C94F00070
:100050000C94F0000C94F0000C94F0000C94FA074F
:100060000C94F0000C94F00087026B023F02360201
:100070003C02E502DA025A093A083A0857096309CC
:1000800053096A0966096E092609F8086E616E004F
:10009000696E660000407A10F35A00A0724E18098B
:1000A0000010A5D4E80000E87648170000E40B54DF
:1000B000020000CA9A3B000000E1F50500008096AE
:1000C0009800000040420F000000A08601000000E0
:1000D000102700000000E80300000000640000009A
:1000E00000000A00000000000100000000002C7663
:1000F000D888DC674F0823DFC1DFAE59E1B1B7967E
:10010000E5E3E453C63AE651997696E8E6C28426DA
:10011000EB898C9B62ED407C6FFCEFBC9C9F40F2B6
:10012000BAA56FA5F490055A2AF75C936B6CF96732
:100130006DC11BFCE0E40D47FEF520E6B500D0EDF7
:10014000902E0300943577050080841E080000205F
:100150004E0A000000C80C333333330F986E1283FD
:100160001141EF8D2114893BE65516CFFEE6DB18D1
:10017000D1844B381BF77C1D901DA4BBE424203296
:1001800084725E228100C9F124ECA1E53D2711248F
:100190001FBECFEFD8E0DEBFCDBF14BE0FB6F894C0
:1001A000A895809160008861809360001092600043
:1001B0000FBE11E0A0E0B1E0E2E3F7E202C005907B
:1001C0000D92AC30B107D9F721E0ACE0B1E001C04D
:1001D0001D92AE36B207E1F70E94BA0E0C94971347
:1001E0000C94000084E10E94B40784EF91E00E9427
:1001F000740385E10E94B40788EE93E00C947403C5
:1002000080E00E94B40788EE93E00E94740381E0CE
:100210000E94B40788EE93E00E94740384E00E9479
:10022000B40788EE93E00E94740380E10E94B40753
:1002300088EE93E00C947403089580E090E00895B4
:100240000895DF92EF92FF920F931F93CF93DF9366
:10025000F89414B817B81AB815B818B81BB8529A49
:100260005A9A14BC85E085BD8FEF87BD82E08093EC
:100270006E0010928000109281002FE83BE03093D6
:1002800089002093880080936F005398239891EA07
:100290009093B0008093B1001092B4001092B3001C
:1002A0008BE080BF83E080937F0086E080937C00BA
:1002B00083E880937A0080917A00806480937A004A
:1002C00080917A0086FDFCCF10927C0083EA8093B7
:1002D0007A0081E080937B0081E090E00E942D1302
:1002E0008F3F11F08093660010923701C1E0C093F8
:1002F0001001C093540110922E011092680180E900
:1003000090E00E942D1380932D0180912D01887320
:1003100011F0C0932D0110925801109257018FEFE8
:1003200090E0909356018093550110923301109202
:100330003401109235011092360181E080930F0153
:1003400082E49FE0909367018093660180EB90E0E8
:100350000E942D13C82F81EB90E00E942D132C2FAB
:1003600030E0382B30936A012093690185E090E0FA
:100370000E942D1380936D0189E090E00E942D135F
:10038000809359018CE090E00E942D1380936B01C3
:1003900084E190E00E942D1380936C0158E3E52ED8
:1003A00051E0F52E01E111E0C0E2D0E0CE010E9463
:1003B0002D13D82ECE0101960E942D132D2D30E045
:1003C000322F2227282BF701219331937F01CE0171
:1003D000C0960E942D13D82ECE01C1960E942D13D7
:1003E0002D2D30E0322F2227282BF8012193319335
:1003F0008F012296CC33D105C9F67894DF91CF9145
:100400001F910F91FF90EF90DF9008951F920F9230
:100410000FB60F9211248F930FB6F894A895809180
:100420006000886180936000109260000FBE8F9121
:100430000F900FBE0F901F9018953C01EB0110E03C
:1004400099249A9484E0C82E96E0A92E23E8B22E2F
:1004500038E1D32E49E2E42EE0910F01F0E0E730DD
:10046000F105D0F7EC5CFF4F0C94D90E112309F481
:1004700005C1C0920F0111E0FE010995EDCF8091F9
:100480003701811105C1F894A0927C00B0927A00E6
:1004900080917A00806480937A0080917A0086FD52
:1004A000FCCF809178009091790078948B3AE2E0CB
:1004B0009E070CF0E6C08938F2E09F070CF0EFC011
:1004C000873692400CF4E4C0559A549A3B9A3A9A73
:1004D0003D983C98C1CF559854983B9A3A9A3D988C
:1004E0003C98EFECF7E03197F1F700C00000559829
:1004F00054983B983A983D983C98FFEF21EE84E061
:10050000F15020408040E1F700C00000A5CFF894F2
:1005100080B7877F80BF80917A008F7780937A0041
:1005200014B817B81AB815B818B81BB80FB6F8949D
:10053000A895D09260000FBEE092600080916000AC
:1005400080648093600083B7817F846083BFF89468
:1005500083B7816083BF7894889583B78E7F83BF8C
:10056000789410923701529A5A9A80917A00806852
:1005700080937A0087E592E00197F1F700C00000D0
:1005800080B7886180BF559A549A3B9A3A9A3D9AAF
:100590003C9AEFE1FEE43197F1F700C00000809152
:1005A000370181115BC0559854983B983A983D9813
:1005B0003C9852CF80910D01811125C01092B3005B
:1005C0001092B40010920E0147CF4899ECCF559A83
:1005D00054983B983A983D983C988FEC97E0019757
:1005E000F1F700C00000559854983B983A983D9810
:1005F0003C989FEFE1EEF4E09150E040F040E1F7ED
:1006000000C0000029CF90910D0180910E01981734
:1006100009F422CF80910D0180930E0180910D018C
:10062000813009F450C080910D011092B300909276
:10063000B4008230D9F19092B3009092B4008FE26E
:1006400095E70197F1F700C0000080916C0190914F
:100650006B019093B3008093B400FECE559A549AE8
:100660003B983A983D983C98FFEF20E782E0F150A4
:1006700020408040E1F700C0000095CFF3010995CC
:10068000F8CE559854983B9A3A9A3D983C98E4CEC7
:10069000559A549A3B983A983D983C98DDCE559897
:1006A00054983B983A983D9A3C9AD6CEEFE2F5E7BB
:1006B0003197F1F700C00000809159011092B3000A
:1006C0008093B400C9CE9092B3001092B4008FE230
:1006D00095E70197F1F700C0000080916D018093CC
:1006E000B3001092B400B8CE07C0EFECF7E031973A
:1006F000F1F700C0000001970097B9F708958093C3
:10070000B3006093B40008958FEF8093B30080939B
:10071000B4008FE090E0EFECF7E03197F1F700C024
:1007200000000197C1F708958091370181111EC023
:10073000F89487E080937C0083E880937A0080912E
:100740007A00806480937A0080917A0086FDFCCFE5
:10075000809178009091790010927C0023EA209398
:100760007A0021E020937B00789408958FEF9FEF2B
:1007700008958091370181111EC0F89488EC809310
:100780007C0087E880937A0080917A00806480936F
:100790007A0080917A0086FDFCCF8091780090915C
:1007A000790010927C0023EA20937A0021E02093C4
:1007B0007B00789408958FEF9FEF08950F931F9318
:1007C000CF93DF93E0E0F0E080E003EA11E0D6E0D1
:1007D000C3E8A1E0B0E060E870E0F894D0937C005A
:1007E000C0937A0090917A00906490937A009091EF
:1007F0007A0096FDFCCF209178003091790021702D
:1008000090917A00906490937A0090917A0096FD8E
:10081000FCCF409178005091790010927C000093B9
:100820007A0010937B0078944170241303C06150C8
:10083000710999F6222339F09D010E2E01C0220F75
:100840000A94EAF7822B3196E830F10509F0C3CF1C
:10085000DF91CF911F910F91089580910001982F02
:10086000990F990F990F892790910C0121E0290F79
:1008700020930C01282F2295269527708227969584
:10088000969589278093000108958093000108952B
:1008900080913701811116C0F89486E080937C0026
:1008A00083E880937A0080917A00806480937A0054
:1008B00080917A0086FDFCCF80917800909179003C
:1008C000789408958FEF9FEF08952F923F924F9263
:1008D0005F926F927F928F929F92AF92BF92CF92D0
:1008E000DF92EF92FF920F931F93CF93DF9300D08D
:1008F00000D000D0CDB7DEB71C01DC0112960D9000
:10090000BC91A02DBE83AD83A438E3E0BE070CF0FC
:10091000CBC080911101909112018A179B0708F4B6
:100920008CC100911301109114010A171B0708F4E0
:1009300022C200911501109116010A171B0708F435
:1009400028C200911701109118010A171B0708F41B
:1009500024C20091190110911A010A171B0708F40B
:1009600025C200911B0110911C010A171B0708F4F6
:10097000E6C100911D0110911E010A171B0708F422
:100980001EC200911F01109120010A171B0708F4D5
:100990001FC200912101109122010A171B0708F4C0
:1009A00025C200912301109124010A171B0708F4A6
:1009B00026C200912501109126010A171B0708F491
:1009C00022C200912701109128010A171B0708F481
:1009D00023C20091290110912A010A171B0708F46C
:1009E00024C200912B0110912C010A171B0708F457
:1009F00025C280E090E0A0EDB0E489839A83AB83C8
:100A0000BC832CE0E22EF12CF701EE0FFF1FEF5E0E
:100A1000FE4F80819181B801681B790B80E090E0E6
:100A20000E944E109B01AC010E943A0F6B017C01A9
:100A3000AD81BE81BD01BB0F880B990B0E94501088
:100A40004B015C01B80180E090E00E944E102B0148
:100A50003C0129813A814B815C81C701B6010E942A
:100A6000DC109B01AC01C301B2010E94390F9B0154
:100A7000AC01C501B4010E94390F20E030E040E232
:100A800051E40E94DC100E9418108B01C701B601CE
:100A90000E941810AB01BC01C801BA010E94C50E2A
:100AA0006983ED81FE81CBC0DC01CD90DC9080912B
:100AB0003801909139018C159D0508F4DFC0BFEF16
:100AC000B98300913A0110913B010C151D0508F402
:100AD00056C100913C0110913D010C151D0508F413
:100AE00053C100913E0110913F010C151D0508F402
:100AF00058C100914001109141010C151D0508F4E9
:100B000059C100914201109143010C151D0508F4D3
:100B1000B7C000914401109145010C151D0508F462
:100B200052C100914601109147010C151D0508F4B2
:100B300053C100914801109149010C151D0508F49D
:100B400050C100914A0110914B010C151D0508F48C
:100B500051C100914C0110914D010C151D0508F477
:100B600056C100914E0110914F010C151D0508F45E
:100B700057C100915001109151010C151D0508F449
:100B800058C100915201109153010C151D0508F434
:100B900059C11AE5B981BF3F09F459C1ED81FE8100
:100BA000BF01FF0F880B990B0E9450104B015C0195
:100BB000F9816F2F70E080E090E00E944E106B0191
:100BC0007C01A501940160E070E081E694E40E945C
:100BD000390F9B01AC01C701B6010E94DC106B010B
:100BE0007C01612F70E080E090E00E944E102B01AC
:100BF0003C0120E030E04FE254E4C501B4010E9422
:100C0000390F9B01AC01C301B2010E94DC109B01B2
:100C1000AC01C701B6010E943A0F20E030E048E481
:100C200053E40E94A60F20E030E044E052E40E942A
:100C30003A0F0E941F10862F08C01982FD01ED3B5C
:100C4000F2400CF007C189818F5D26960FB6F894AB
:100C5000DEBF0FBECDBFDF91CF911F910F91FF90EF
:100C6000EF90DF90CF90BF90AF909F908F907F904C
:100C70006F905F904F903F902F90089581E2E5CF65
:100C8000F5E03F2EE5E0F0E0EE0FFF1FEA5CFE4FDF
:100C900080819181B801681B790B80E090E00E940F
:100CA0004E109B01AC010E943A0F4B015C01B60152
:100CB000DD0C880B990B0E9450102B013C01B801F0
:100CC00080E090E00E944E106B017C01632D70E08B
:100CD00080E090E00E944E1020E030E040E05FE3D2
:100CE0000E94DC1020E030E0A9010E943A0FA5012B
:100CF00094010E94DC109B01AC01C701B6010E9467
:100D0000390F9B01AC01C301B2010E94390F20E0F1
:100D100030E040E251E40E94DC100E9418108B0188
:100D2000C501B4010E941810AB01BC01C801BA0191
:100D30000E94C50E162F6F3F09F02CCF84CF65E0BF
:100D400085E090E07C01F1E0EF1AF10870E080E0CE
:100D500090E00E944E1020E030E040E05FE30E940F
:100D6000DC1020E030E0A9010E943A0F69837A8309
:100D70008B839C8349CE61E081E090E0E3CF332414
:100D80003394E1E0F0E080CF82E0382EE2E0F0E062
:100D90007BCF62E082E090E0D5CF63E083E090E03B
:100DA000D1CFB3E03B2EE3E0F0E06ECF64E084E02F
:100DB00090E0C8CFA4E03A2EE4E0F0E065CF66E032
:100DC00086E090E0BFCFE6E03E2EE6E0F0E05CCFCC
:100DD00067E087E090E0B6CF77E0372EE7E0F0E01D
:100DE00053CF68E0362EE8E0F0E04ECF68E088E0D0
:100DF00090E0A8CF59E0352EE9E0F0E045CF69E07A
:100E000089E090E09FCF6AE08AE090E09BCF4AE0E3
:100E1000342EEAE0F0E038CF6BE08BE090E092CF48
:100E20003BE0332EEBE0F0E02FCF6CE08CE090E085
:100E300089CF2CE0322EECE0F0E026CF6DE08DE0A3
:100E400090E080CF9DE0392EEDE0F0E01DCF81E213
:100E5000810FFBCED101CD90DC9080913801909133
:100E600039018C159D0508F02CCE10E093CE1F9211
:100E70000F920FB60F9211242F933F934F935F93CE
:100E80006F937F938F939F93AF93BF93EF93FF9352
:100E90002091570130915801809155019091560150
:100EA000820F931F90935801809357018FEF90E02A
:100EB00090935601809355018FEF87BD8091330148
:100EC00090913401A0913501B09136010196A11D98
:100ED000B11D8093330190933401A0933501B093F9
:100EE00036018091370181110FC080916601909188
:100EF000670120915701309158018217930720F420
:100F000080910F01843089F0FF91EF91BF91AF91F3
:100F10009F918F917F916F915F914F913F912F9111
:100F20000F900FBE0F901F901895E0910301F09164
:100F300004010995009741F30E94BA0A81110AC081
:100F40000E9495119C01332730935601209355013F
:100F500087BDDACFE0910101F0910201099510926D
:100F6000580110925701D0CF80FF11C0559A81FFD0
:100F700011C0549A82FF11C03B9A83FF11C03A9A64
:100F800084FF11C03D9A85FD11C03C980895559885
:100F900081FDEFCF549882FDEFCF3B9883FDEFCFDB
:100FA0003A9884FDEFCF3D9885FFEFCF3C9A0895A6
:100FB0001F920F920FB60F9211248F939F9310924E
:100FC0008100109285001092840081E080931001CE
:100FD000809354011092370110927C0093EA909311
:100FE0007A0080937B009F918F910F900FBE0F909E
:100FF0001F9018951F920F920FB60F9211242F93E6
:101000003F934F935F936F937F938F939F93AF9390
:10101000BF93CF93DF93EF93FF93209184003091A0
:10102000850041E040933701809110018823A9F1A8
:101030001092850010928400409381001092680104
:1010400010921001809154018823A1F080917A00C0
:1010500086FDFCCF809178009091790090933201C9
:101060008093310181E080937C0093EA90937A0031
:1010700080937B00FF91EF91DF91CF91BF91AF9172
:101080009F918F917F916F915F914F913F912F91A0
:101090000F900FBE0F901F901895C90187589109A6
:1010A0008437994008F04FC026583109A4EFB0E0CA
:1010B0000E94DF0EAA27BB27883008F47BC040932C
:1010C000100180915401811152C080912E01E82FAE
:1010D000F0E0E65AFE4F9091680190838F5F809315
:1010E0002E018C3039F610928100109285001092FA
:1010F00084004093540110923701C0916401D09153
:1011000065018AE591E00E94010AC817D90709F034
:10111000B1CF8091630187FF61C098E7980F93304A
:1011200030F0539823981092B4001092B30090E0DE
:10113000FC01E058F109EB30F10508F09BCFE55CCC
:10114000FF4F0C94D90E10928100109285001092DE
:101150008400409310014093540110923701109283
:101160007C0083EA80937A0040937B0083CF809158
:101170007A0086FDFCCF8091780090917900909361
:10118000300180932F0110927C0083EA80937A00D3
:1011900081E080937B00909168019923D1F01092B7
:1011A0008100109285001092840080935401109267
:1011B000370160CF21E030E0F90102C0EE0FFF1FE0
:1011C0008A95E2F7CF0190916801892B809368019D
:1011D00051CF1092540110922E014CCFE091050195
:1011E000F09106016FE271E08AE591E0099542CF46
:1011F00080915A01823009F4DDC008F4BAC083300E
:1012000009F4C6C0843009F0B1C080910D019091FD
:101210006001833009F4E3C080915F0110920E01F8
:1012200023E020930D0180936B0190936C018091DA
:101230000F01863009F41ECF539A239A1092B400FE
:101240001092B30086E080930F0114CF80910F01BC
:10125000863099F0539A239A1092B4001092B300FA
:10126000559854983B983A983D983C9810920D01A7
:1012700010920E0186E080930F0181E090E09C01C6
:1012800000905A0102C0220F331F0A94E2F78091A6
:10129000690190916A0182239323892B09F086C00A
:1012A00010920D01E7CE81E080930F01E3CEE0E0E4
:1012B000F0E0099580916E008D7F80936E0016BCE2
:1012C000E0E0F0E7099510920F01D4CE82E0809320
:1012D0000F01D0CE85E080930F01CCCE80910F011D
:1012E000833009F4C7CE80910F01843009F4C2CE57
:1012F000539A239A1092B4001092B30083E0809323
:101300000F01B8CE80910F01863009F0B3CE609105
:10131000690180EB90E00E94351360916A0181EBD6
:1013200090E00E94351360916D0185E090E00E948D
:1013300035136091590189E090E00E943513609166
:101340006B018CE090E00E94351360916C0184E1A8
:1013500090E00E943513539823981092B400109295
:10136000B30081E080930F0180915A0181115FCF1A
:1013700081CE882339F28130C9F780915B01909149
:101380005C0190936A018093690110920D014FCF27
:1013900080910D01823071F180915E0110920E01F9
:1013A00092E090930D018093590141CF81E08093A9
:1013B0000D0160CE80910D01813051F080915D0171
:1013C00010920E0191E090930D0180936D012FCF4B
:1013D00080915D0190916D018913F2CF28CF8091AA
:1013E0006C01981319CF80915F0120916B018213DA
:1013F00015CF1DCF80915E01909159018913CECFF9
:1014000016CFFC0180812FEF3FEF2827022E229577
:10141000207F2025032E322F22952F70022626951D
:1014200032272327220F220F220F202581812827F0
:10143000022E2295207F2025032E322F22952F70F9
:101440000226269532272327220F220F220F20253E
:1014500082812827022E2295207F2025032E322FDD
:1014600022952F700226269532272327220F220F3E
:10147000220F202583812827022E2295207F2025D8
:10148000032E322F22952F700226269532272327EE
:10149000220F220F220F202584812827022E229539
:1014A000207F2025032E322F22952F70022626958D
:1014B00032272327220F220F220F2025858128275C
:1014C000022E2295207F2025032E322F22952F7069
:1014D0000226269532272327220F220F220F2025AE
:1014E00086812827022E2295207F2025032E322F49
:1014F00022952F700226269532272327220F220FAE
:10150000220F202587812827022E2295207F202543
:10151000032E322F22952F7002262695322723275D
:10152000220F220F220F202580852827022E2295A8
:10153000207F2025032E322F22952F7002262695FC
:1015400032272327220F220F220F20254185C90190
:101550008427082E8295807F8025092E982F8295DA
:101560008F700826869598278927880F880F880FFF
:10157000802508950FB6F894A4B120912D012A2B4F
:1015800024B921E030912D01203029F0000025B14F
:10159000232B25B904C000000000000000C000009B
:1015A00000000000309525B1232325B92EEA2A95A5
:1015B000F1F72BEE30B735FF0AC0A4B930912D01F9
:1015C000309525B1232325B90FBE80E00895000092
:1015D0002A9581F721E030912D01203029F000007B
:1015E00025B1232B25B904C000000000000000C075
:1015F000000000000000309525B1232325B900002C
:1016000024E52A95F1F7FC018CE0619170E0660F0A
:10161000771F616072609AE041E050E09A012623F2
:101620003723232B30912D01203029F0000025B1E4
:10163000232B25B904C000000000000000C00000FA
:1016400000000000309525B1232325B9000021E5D5
:101650002A95F1F7440F551F9A9501F78A95A9F637
:1016600020B7206120BFA4B930912D01309525B15C
:10167000232325B90FBE81E00895A0E1B0E0E3E4A3
:10168000FBE00C94EE0E7C011B016A01FC01178249
:101690001682838181FF44C39E012F5F3F4F390132
:1016A000F7019381F10193FD859193FF81911F01D2
:1016B000882309F431C3853239F493FD859193FF72
:1016C00081911F01853239F4B70190E00E94931295
:1016D00056016501E5CF10E0512C912CFFE1F91581
:1016E000D8F08B3279F038F4803279F08332A1F47B
:1016F000F92DF0612EC08D3261F0803369F4292D0F
:1017000021602DC0392D3260932E892D8460982E52
:101710002AC0E92DE86015C097FC2DC020ED280FE8
:101720002A3088F496FE06C03AE0139F200D11245B
:10173000122F19C08AE0589E200D1124522EE92D37
:10174000E0629E2E10C08E3231F496FCE5C2F92D77
:10175000F0649F2E08C08C3621F4292D2068922E2B
:1017600002C0883641F4F10193FD859193FF819188
:101770001F018111B3CF9BEB980F933020F4992D6B
:101780009061805E07C09BE9980F933008F066C1B6
:10179000992D9F7E96FF16E09F73992E853619F43A
:1017A0009064992E08C0863621F4392F3068932E24
:1017B00002C01111115097FE07C01C3350F444248D
:1017C0004394410E27E00BC0183038F027E017E0B3
:1017D00005C027E09CE3492E02C0212F412C560171
:1017E00084E0A80EB11CF601608171818281938131
:1017F000042DA3010E94A5116C01F981FC87F0FF63
:1018000002C0F3FF06C091FC06C092FE06C000E2D3
:1018100005C00DE203C00BE201C000E08C858C70B6
:1018200019F001115AC29BC297FE10C04C0CFC85E6
:10183000F4FF04C08A81813309F44A94141474F5C6
:1018400028E0241578F588E0482E2CC096FC2AC0A4
:10185000812F90E08C159D059CF03CEFC3163FEF67
:10186000D30674F0892D8068982E0AC0E2E0F0E07B
:10187000EC0FFD1FE10FF11D8081803319F4115031
:101880001111F4CF97FE0EC044244394410E812FD2
:1018900090E0C816D9062CF41C1904C044244394C3
:1018A00001C010E097FE06C01C141D0434F4C601EC
:1018B000019605C085E090E002C081E090E0011152
:1018C0000196112331F0212F30E02F5F3F4F820F1F
:1018D000931F252D30E08217930714F4581A01C086
:1018E000512C892D897049F4552039F0B70180E2D7
:1018F00090E00E9493125A94F7CF002329F0B70189
:10190000802F90E00E94931293FC09C0552039F07B
:10191000B70180E390E00E9493125A94F7CF97FEAC
:101920004CC04601D7FE02C0812C912CC6018819FB
:101930009909F301E80FF91FFE87ED879601241935
:101940003109388B2F87012F10E01195019511096E
:101950003FEF8316930629F4B7018EE290E00E94D0
:101960009312C814D9044CF08F859889881599056D
:1019700024F4ED85FE85818101C080E3F1E08F1ABA
:1019800091082D853E852F5F3F4F3E872D8780161E
:1019900091062CF0B70190E00E949312D9CFC814A1
:1019A000D90441F49A81963320F4953319F43C8597
:1019B00034FF81E3B70190E04EC08A81813319F092
:1019C0009C859F7E9C87B70190E00E949312111125
:1019D00005C094FC18C085E690E017C0B7018EE200
:1019E00090E00E9493121E5F82E001E0080FF30175
:1019F000E80FF11D8081B70190E00E949312802FC3
:101A00000113F3CFE6CF85E490E0B7010E94931273
:101A1000D7FC06C0C114D10441F4EC85E4FF05C035
:101A2000D194C194D1088DE201C08BE2B70190E05E
:101A30000E94931280E32AE0C216D1042CF08F5F3B
:101A4000FAE0CF1AD108F7CFB70190E00E949312C5
:101A5000B701C601C0960E94931254C1833631F07B
:101A6000833779F0833509F056C020C0560132E043
:101A7000A30EB11CF6018081898301E010E06301AF
:101A800012C05601F2E0AF0EB11CF601C080D18049
:101A900096FE03C0612F70E002C06FEF7FEFC601BA
:101AA0000E9488128C01F92DFF7714C0560122E0A4
:101AB000A20EB11CF601C080D18096FE03C0612F3A
:101AC00070E002C06FEF7FEFC6010E947D128C01B3
:101AD000F92DF0689F2EF3FD1AC0852D90E00817B0
:101AE0001907A8F4B70180E290E00E9493125A947B
:101AF000F4CFF60197FC859197FE81916F01B701B4
:101B000090E00E94931251105A940150110901154E
:101B1000110579F7F7C0843611F0893661F5560161
:101B200097FE09C024E0A20EB11CF601608171810C
:101B3000828193810AC0F2E0AF0EB11CF601608190
:101B40007181072E000C880B990BF92DFF769F2EC3
:101B500097FF09C090958095709561957F4F8F4F45
:101B60009F4FF0689F2E2AE030E0A3010E94CF1221
:101B7000C82EC6183FC0092D853721F40F7E2AE0F4
:101B800030E01DC0097F8F3691F018F4883559F088
:101B9000C3C0803719F0883711F0BEC0006104FF60
:101BA00009C0046007C094FE08C0066006C028E0B3
:101BB00030E005C020E130E002C020E132E0560113
:101BC00007FF09C084E0A80EB11CF6016081718195
:101BD0008281938108C0F2E0AF0EB11CF6016081F2
:101BE000718180E090E0A3010E94CF12C82EC61838
:101BF0000F77902E96FE0BC0092D0E7FC11650F464
:101C000094FE0AC092FC08C0092D0E7E05C0DC2C93
:101C1000092D03C0DC2C01C0D12E04FF0DC0FE0134
:101C2000EC0DF11D8081803311F4097E09C002FFA3
:101C300006C0D394D39404C0802F867809F0D3943F
:101C400003FD11C000FF06C01C2DD51480F4150D36
:101C50001D190DC0D51458F4B70180E290E00E9420
:101C60009312D394F7CFD51410F45D1801C0512C02
:101C700004FF10C0B70180E390E00E94931202FFBE
:101C800017C001FD03C088E790E002C088E590E03E
:101C9000B7010CC0802F867859F001FF02C08BE29B
:101CA00001C080E207FD8DE2B70190E00E9493122F
:101CB000C11638F4B70180E390E00E9493121150EE
:101CC000F7CFCA94F301EC0DF11D8081B70190E0CC
:101CD0000E949312C110F5CF15C0F4E0F51560F520
:101CE00084E0581A93FE1FC0011127C02C8523FFE2
:101CF0002AC00CE810E0392D3071932EF801849140
:101D0000811124C0552009F4E4CCB70180E290E0B1
:101D10000E9493125A94F6CFF7018681978126C0CC
:101D20008FEF9FEF23C0B70180E290E00E949312F3
:101D30005A945110F8CFD8CF512CB701802F90E092
:101D40000E949312D3CF00E910E0D5CF91108052BA
:101D5000B70190E00E9493120F5F1F4FCFCF23E097
:101D6000251510F483E0BDCF512CC0CF6096E2E181
:101D70000C940A0F0E94210160E071E082EF90E074
:101D80000E941D0280E090E0089597FB072E16F454
:101D9000009407D077FD09D00E94250F07FC05D0DD
:101DA0003EF4909581959F4F0895709561957F4F72
:101DB0000895EE0FFF1F0590F491E02D0994A29F66
:101DC000B001B39FC001A39F700D811D1124911D0F
:101DD000B29F700D811D1124911D08952F923F9285
:101DE0004F925F926F927F928F929F92AF92BF922B
:101DF000CF92DF92EF92FF920F931F93CF93DF93D7
:101E0000CDB7DEB7CA1BDB0B0FB6F894DEBF0FBE33
:101E1000CDBF09942A88398848885F846E847D8480
:101E20008C849B84AA84B984C884DF80EE80FD8082
:101E30000C811B81AA81B981CE0FD11D0FB6F894F8
:101E4000DEBF0FBECDBFED010895AA1BBB1B51E144
:101E500007C0AA1FBB1FA617B70710F0A61BB70B1A
:101E6000881F991F5A95A9F780959095BC01CD01BF
:101E700008955058BB27AA270E94510F0C94A21016
:101E80000E94941038F00E949B1020F039F49F3F7C
:101E900019F426F40C9491100EF4E095E7FB0C94E1
:101EA0008B10E92F0E94B31058F3BA17620773071B
:101EB0008407950720F079F4A6F50C94D5100EF45C
:101EC000E0950B2EBA2FA02D0B01B90190010C014A
:101ED000CA01A0011124FF27591B99F0593F50F462
:101EE000503E68F11A16F040A22F232F342F4427BA
:101EF000585FF3CF469537952795A795F0405395B2
:101F0000C9F77EF41F16BA0B620B730B840BBAF081
:101F10009150A1F0FF0FBB1F661F771F881FC2F7EC
:101F20000EC0BA0F621F731F841F48F48795779500
:101F30006795B795F7959E3F08F0B0CF9395880FBA
:101F400008F09927EE0F9795879508950E94BA0F8C
:101F50000C94A2100E949B1058F00E94941040F024
:101F600029F45F3F29F00C948B1051110C94D6107A
:101F70000C9491100E94B31068F39923B1F3552388
:101F800091F3951B550BBB27AA276217730784078C
:101F900038F09F5F5F4F220F331F441FAA1FA9F322
:101FA00035D00E2E3AF0E0E832D091505040E69510
:101FB000001CCAF72BD0FE2F29D0660F771F881F71
:101FC000BB1F261737074807AB07B0E809F0BB0B64
:101FD000802DBF01FF2793585F4F3AF09E3F510578
:101FE00078F00C948B100C94D6105F3FE4F3983E7D
:101FF000D4F3869577956795B795F7959F5FC9F761
:10200000880F911D9695879597F90895E1E0660FE1
:10201000771F881FBB1F621773078407BA0720F05A
:10202000621B730B840BBA0BEE1F88F7E0950895C3
:102030000E941F106894B1110C94D61008950E944C
:10204000BB1088F09F5798F0B92F9927B751B0F07F
:10205000E1F0660F771F881F991F1AF0BA95C9F72C
:1020600014C0B13091F00E94D510B1E008950C94E5
:10207000D510672F782F8827B85F39F0B93FCCF398
:10208000869577956795B395D9F73EF490958095A9
:10209000709561957F4F8F4F9F4F0895E89409C0C9
:1020A00097FB3EF490958095709561957F4F8F4F8B
:1020B0009F4F9923A9F0F92F96E9BB279395F695A1
:1020C000879577956795B795F111F8CFFAF4BB0F1F
:1020D00011F460FF1BC06F5F7F4F8F4F9F4F16C083
:1020E000882311F096E911C0772321F09EE8872F0D
:1020F000762F05C0662371F096E8862F70E060E0C9
:102100002AF09A95660F771F881FDAF7880F969541
:10211000879597F9089597F99F6780E870E060E0E8
:1021200008959FEF80EC089500240A941616170670
:1021300018060906089500240A94121613061406B8
:1021400005060895092E0394000C11F4882352F01B
:10215000BB0F40F4BF2B11F460FF04C06F5F7F4FD3
:102160008F4F9F4F089557FD9058440F551F59F0BA
:102170005F3F71F04795880F97FB991F61F09F3F74
:1021800079F087950895121613061406551FF2CF9D
:102190004695F1DF08C0161617061806991FF1CFED
:1021A00086957105610508940895E894BB27662714
:1021B0007727CB0197F908950E94EF100C94A21095
:1021C0000E94941038F00E949B1020F0952311F08B
:1021D0000C948B100C94911011240C94D6100E9426
:1021E000B31070F3959FC1F3950F50E0551F629F98
:1021F000F001729FBB27F00DB11D639FAA27F00D60
:10220000B11DAA1F649F6627B00DA11D661F829F86
:102210002227B00DA11D621F739FB00DA11D621F6B
:10222000839FA00D611D221F749F3327A00D611D88
:10223000231F849F600D211D822F762F6A2F11246A
:102240009F5750409AF0F1F088234AF0EE0FFF1F9D
:10225000BB1F661F771F881F91505040A9F79E3FF4
:10226000510580F00C948B100C94D6105F3FE4F372
:10227000983ED4F3869577956795B795F795E7954A
:102280009F5FC1F7FE2B880F911D9695879597F953
:1022900008958F929F92AF92BF92CF92DF92EF926A
:1022A000FF92CF93DF93EC01688179818A819B81D2
:1022B000611571058105910521F464E279ED8BE5E5
:1022C00097E02DE133EF41E050E00E9443134901D4
:1022D0005A019B01AC01A7EAB1E40E9462136B01B1
:1022E0007C01ACEEB4EFA50194010E947013DC01F7
:1022F000CB018C0D9D1DAE1DBF1DB7FF03C0019707
:10230000A109B04888839983AA83BB839F77DF9113
:10231000CF91FF90EF90DF90CF90BF90AF909F90C4
:102320008F9008950E944911089587E091E00E94DE
:1023300049110895A0E0B0E080930701909308014F
:10234000A0930901B0930A010895283008F027E00E
:102350003327DA01990F311D87FD916000966105E1
:10236000710539F432602E5F3D9330E32A95E1F731
:1023700008959F3F30F080387105610509F03C5F9A
:102380003C5F3D93913008F08068911DDF93CF93BF
:102390001F930F93FF92EF92192F987F9695E92F35
:1023A00096959695E90FFF27E251FF4F992733271E
:1023B000EE24FF24A701E70105900894079428F470
:1023C000360FE71EF81E491F511D660F771F881F25
:1023D000991F0694A1F70590079428F4E70EF81EBC
:1023E000491F561FC11D770F881F991F661F06942E
:1023F000A1F70590079428F4F80E491F561FC71F30
:10240000D11D880F991F661F771F0694A1F70590AD
:10241000079420F4490F561FC71FD81F990F661F36
:10242000771F881F0694A9F784911095177041F0C3
:10243000D695C79557954795F794E7941A95C1F7A0
:10244000E4E9F0E0689415901591359165919591C6
:1024500005907FE27395E118F10A430B560BC90B07
:10246000D009C0F7E10CF11E431F561FC91FD01D34
:102470007EF4703311F48A95E6CFE894015030F081
:10248000080F0AF40027021708F4202F2395022FC3
:102490007A3328F079E37D932A95E9F710C07D938C
:1024A0002A9589F606949795679537951795179409
:1024B000E118F10A430B560BC90BD00998F023958C
:1024C0007E9173957A3308F070E37C932013B8F70C
:1024D0007E9170617D9330F0839571E37D9370E31D
:1024E0002A95E1F71124EF90FF900F911F91CF9162
:1024F000DF91992787FD90950895FC010590615023
:1025000070400110D8F7809590958E0F9F1F089509
:10251000FC016150704001900110D8F780959095B2
:102520008E0F9F1F08950F931F93CF93DF93FB018F
:10253000238121FD03C08FEF9FEF2CC022FF16C027
:1025400046815781248135814217530744F4A08185
:10255000B1819D012F5F3F4F318320838C93268172
:1025600037812F5F3F4F3783268314C08B01EC01E7
:10257000FB010084F185E02D0995892BE1F6D80156
:1025800016968D919C911797019617969C938E9312
:102590001697CE01DF91CF911F910F910895FA0107
:1025A000AA27283051F1203181F1E8946F936E7F92
:1025B0006E5F7F4F8F4F9F4FAF4FB1E03ED0B4E083
:1025C0003CD0670F781F891F9A1FA11D680F791FC4
:1025D0008A1F911DA11D6A0F711D811D911DA11DD5
:1025E00020D009F468943F912AE0269F11243019E5
:1025F000305D3193DEF6CF010895462F4770405D80
:102600004193B3E00FD0C9F7F6CF462F4F70405D2E
:102610004A3318F0495D31FD4052419302D0A9F789
:10262000EACFB4E0A6959795879577956795BA9583
:10263000C9F700976105710508959B01AC010A2E49
:1026400006945795479537952795BA95C9F7620F20
:10265000731F841F951FA01D0895F999FECF92BD89
:1026600081BDF89A992780B50895262FF999FECF54
:102670001FBA92BD81BD20BD0FB6F894FA9AF99A9F
:102680000FBE01960895052E97FB1EF400940E943C
:102690005A1357FD07D00E94751307FC03D04EF460
:1026A0000C945A1350954095309521953F4F4F4FBC
:1026B0005F4F089590958095709561957F4F8F4FEE
:1026C0009F4F08950E94DF0EA59F900DB49F900D1F
:1026D000A49F800D911D11240895B7FF0C946213DF
:1026E0000E946213821B930B0895A1E21A2EAA1B6B
:1026F000BB1BFD010DC0AA1FBB1FEE1FFF1FA217B2
:10270000B307E407F50720F0A21BB30BE40BF50BAE
:10271000661F771F881F991F1A9469F76095709537
:10272000809590959B01AC01BD01CF010895F8946F
:02273000FFCFD9
:0C273200AA20011D011C01010000000094
:00000001FF
