:100000000C94C7000C94F0000C94F0000C94F000D9
:100010000C94F0000C94F0000C94BA020C94F000D4
:100020000C94F0000C94F0000C94F0000C948C08EC
:100030000C94F0000C94F0000C94EB070C94F0007E
:100040000C94F0000C94F0000C94F0000C94F00070
:100050000C94F0000C94F0000C94F0000C94AE089A
:100060000C94F0000C94F0003B031F03F302EA022F
:10007000F00299038E030E0AEE08EE080B0A170A27
:10008000070A1E0A1A0A220ADA09AC096E616E0012
:10009000696E660000407A10F35A00A0724E18098B
:1000A0000010A5D4E80000E87648170000E40B54DF
:1000B000020000CA9A3B000000E1F50500008096AE
:1000C0009800000040420F000000A08601000000E0
:1000D000102700000000E80300000000640000009A
:1000E00000000A00000000000100000000002C7663
:1000F000D888DC674F0823DFC1DFAE59E1B1B7967E
:10010000E5E3E453C63AE651997696E8E6C28426DA
:10011000EB898C9B62ED407C6FFCEFBC9C9F40F2B6
:10012000BAA56FA5F490055A2AF75C936B6CF96732
:100130006DC11BFCE0E40D47FEF520E6B500D0EDF7
:10014000902E0300943577050080841E080000205F
:100150004E0A000000C80C333333330F986E1283FD
:100160001141EF8D2114893BE65516CFFEE6DB18D1
:10017000D1844B381BF77C1D901DA4BBE424203296
:1001800084725E228100C9F124ECA1E53D2711248F
:100190001FBECFEFD8E0DEBFCDBF14BE0FB6F894C0
:1001A000A895809160008861809360001092600043
:1001B0000FBE11E0A0E0B1E0EAE9F8E202C005906C
:1001C0000D92AC30B107D9F721E0ACE0B1E001C04D
:1001D0001D92A437B207E1F70E946E0F0C944B14E6
:1001E0000C9400000E9438046091720180917101AA
:1001F0000E94330480ED97E00E9428040E94380496
:1002000060E0809173010E94330480ED97E00E94CA
:1002100028040E94380460915F0180E00E9433044A
:1002200080ED97E00E94280460E080E00E943304A3
:100230008091390190913A01A0913B01B0913C012C
:100240008093120190931301A0931401B0931501B0
:1002500008950F931F938091120190911301A09123
:100260001401B09115014091390150913A0160910A
:100270003B0170913C018C019D01005C1F4F2F4F91
:100280003F4F041715072607370708F049C00091AC
:10029000390110913A0120913B0130913C010093CA
:1002A00012011093130120931401309315019091C2
:1002B0000D01892F90E0019663E070E00E94790FB4
:1002C000982F80930D0181E08093000110920C0122
:1002D0004091390150913A0160913B0170913C018C
:1002E000005E1F4F2F4F3F4F041715072607370794
:1002F00008F43FC0913081F1913008F443C092304E
:1003000051F480E10E9468080E94380460915F0106
:1003100080E00E943304109200011F910F91089514
:100320004091390150913A0160913B0170913C013B
:100330008096A11DB11D84179507A607B70720F465
:1003400080910C018823A9F080910001882329F372
:1003500090910D01913081F681E00E9468080E9421
:10036000380460E0809173010E9433041092000110
:10037000D4CF85E10E94680881E080930C018091D0
:100380000001E4CF84E00E9468080E943804609174
:100390007201809171010E94330410920001BDCF5F
:1003A000089580E090E008950895DF92EF92FF9223
:1003B0000F931F93CF93DF93F89414B817B81AB81C
:1003C00015B818B81BB8529A5A9A14BC85E085BD66
:1003D0008FEF87BD82E080936E00109280001092B4
:1003E00081002FE83BE030938900209388008093C0
:1003F0006F005398239891EA9093B0008093B100D6
:100400001092B4001092B3008BE080BF83E0809321
:100410007F0086E080937C0083E880937A0080915F
:100420007A00806480937A0080917A0086FDFCCF08
:1004300010927C0083EA80937A0081E080937B00B5
:1004400081E090E00E94E1138F3F11F080936600FD
:1004500010923D01C1E0C0931601C0935A01109261
:10046000340110926E0180E990E00E94E1138093C4
:10047000330180913301887311F0C09333011092DE
:100480005E0110925D018FEF90E090935C0180938C
:100490005B011092390110923A0110923B011092C7
:1004A0003C0181E08093110182E49FE090936D0113
:1004B00080936C0180EB90E00E94E113C82F81EBE8
:1004C00090E00E94E1132C2F30E0382B3093700124
:1004D00020936F0185E090E00E94E1138093730107
:1004E00089E090E00E94E11380935F018CE090E04E
:1004F0000E94E1138093710184E190E00E94E11376
:10050000809372015EE3E52E51E0F52E07E111E0E4
:10051000C0E2D0E0CE010E94E113D82ECE010196B8
:100520000E94E1132D2D30E0322F2227282BF701D6
:10053000219331937F01CE01C0960E94E113D82E02
:10054000CE01C1960E94E1132D2D30E0322F2227DB
:10055000282BF801219331938F012296CC33D105BA
:10056000C9F67894DF91CF911F910F91FF90EF9092
:10057000DF9008951F920F920FB60F9211248F9360
:100580000FB6F894A8958091600088618093600010
:10059000109260000FBE8F910F900FBE0F901F90B2
:1005A00018953C01EB0110E099249A9484E0C82E40
:1005B00096E0A92E23E8B22E38E1D32E49E2E42EAC
:1005C000E0911101F0E0E730F105D0F7EC5CFF4F6E
:1005D0000C948D0F112309F405C1C092110111E093
:1005E000FE010995EDCF80913D01811105C1F8947F
:1005F000A0927C00B0927A0080917A00806480930F
:100600007A0080917A0086FDFCCF809178009091ED
:10061000790078948B3AE2E09E070CF0E6C08938C6
:10062000F2E09F070CF0EFC0873692400CF4E4C074
:10063000559A549A3B9A3A9A3D983C98C1CF55980E
:1006400054983B9A3A9A3D983C98EFECF7E03197F2
:10065000F1F700C00000559854983B983A983D989F
:100660003C98FFEF21EE84E0F15020408040E1F71C
:1006700000C00000A5CFF89480B7877F80BF80912D
:100680007A008F7780937A0014B817B81AB815B823
:1006900018B81BB80FB6F894A895D09260000FBE9A
:1006A000E09260008091600080648093600083B776
:1006B000817F846083BFF89483B7816083BF78941F
:1006C000889583B78E7F83BF789410923D01529AAC
:1006D0005A9A80917A00806880937A0087E592E048
:1006E0000197F1F700C0000080B7886180BF559A7C
:1006F000549A3B9A3A9A3D9A3C9AEFE1FEE431973C
:10070000F1F700C0000080913D0181115BC0559858
:1007100054983B983A983D983C9852CF80910F015D
:10072000811125C01092B3001092B40010921001F4
:1007300047CF4899ECCF559A54983B983A983D98B2
:100740003C988FEC97E00197F1F700C000005598B6
:1007500054983B983A983D983C989FEFE1EEF4E02E
:100760009150E040F040E1F700C0000029CF9091A7
:100770000F0180911001981709F422CF80910F0189
:100780008093100180910F01813009F450C0809155
:100790000F011092B3009092B4008230D9F1909280
:1007A000B3009092B4008FE295E70197F1F700C093
:1007B000000080917201909171019093B300809339
:1007C000B400FECE559A549A3B983A983D983C987E
:1007D000FFEF20E782E0F15020408040E1F700C0C9
:1007E000000095CFF3010995F8CE559854983B9A9F
:1007F0003A9A3D983C98E4CE559A549A3B983A9848
:100800003D983C98DDCE559854983B983A983D9A3F
:100810003C9AD6CEEFE2F5E73197F1F700C0000041
:1008200080915F011092B3008093B400C9CE909282
:10083000B3001092B4008FE295E70197F1F700C082
:100840000000809173018093B3001092B400B8CE81
:1008500007C0EFECF7E03197F1F700C00000019717
:100860000097B9F708958093B3006093B40008959A
:100870008FEF8093B3008093B4008FE090E0EFECB3
:10088000F7E03197F1F700C000000197C1F7089534
:1008900080913D0181111EC0F89487E080937C0017
:1008A00083E880937A0080917A00806480937A0054
:1008B00080917A0086FDFCCF80917800909179003C
:1008C00010927C0023EA20937A0021E020937B00A1
:1008D000789408958FEF9FEF089580913D018111E5
:1008E0001EC0F89488EC80937C0087E880937A009F
:1008F00080917A00806480937A0080917A0086FDEE
:10090000FCCF809178009091790010927C0023EACE
:1009100020937A0021E020937B00789408958FEF54
:100920009FEF08950F931F93CF93DF93E0E0F0E0E4
:1009300080E003EA11E0D6E0C3E8A1E0B0E060E8BF
:1009400070E0F894D0937C00C0937A0090917A0084
:10095000906490937A0090917A0096FDFCCF20915C
:10096000780030917900217090917A009064909392
:100970007A0090917A0096FDFCCF409178005091DA
:10098000790010927C0000937A0010937B00789499
:100990004170241303C06150710999F6222339F084
:1009A0009D010E2E01C0220F0A94EAF7822B319688
:1009B000E830F10509F0C3CFDF91CF911F910F917E
:1009C000089580910101982F990F990F990F892708
:1009D00090910E0121E0290F20930E01282F2295DE
:1009E00026952770822796959695892780930101F1
:1009F000089580930101089580913D01811116C0F1
:100A0000F89486E080937C0083E880937A0080915C
:100A10007A00806480937A0080917A0086FDFCCF12
:100A20008091780090917900789408958FEF9FEFEE
:100A300008952F923F924F925F926F927F928F9282
:100A40009F92AF92BF92CF92DF92EF92FF920F935D
:100A50001F93CF93DF9300D000D000D0CDB7DEB787
:100A60001C01DC0112960D90BC91A02DBE83AD83BC
:100A7000A438E3E0BE070CF0CBC080911701909141
:100A800018018A179B0708F48CC100911901109175
:100A90001A010A171B0708F422C200911B011091CA
:100AA0001C010A171B0708F428C200911D011091B0
:100AB0001E010A171B0708F424C200911F011091A0
:100AC00020010A171B0708F425C20091210110918B
:100AD00022010A171B0708F4E6C1009123011091B7
:100AE00024010A171B0708F41EC20091250110916A
:100AF00026010A171B0708F41FC200912701109155
:100B000028010A171B0708F425C20091290110913A
:100B10002A010A171B0708F426C200912B01109125
:100B20002C010A171B0708F422C200912D01109115
:100B30002E010A171B0708F423C200912F01109100
:100B400030010A171B0708F424C2009131011091EB
:100B500032010A171B0708F425C280E090E0A0EDDF
:100B6000B0E489839A83AB83BC832CE0E22EF12C22
:100B7000F701EE0FFF1FE95EFE4F80819181B80102
:100B8000681B790B80E090E00E9402119B01AC0190
:100B90000E94EE0F6B017C01AD81BE81BD01BB0FD8
:100BA000880B990B0E9404114B015C01B80180E095
:100BB00090E00E9402112B013C0129813A814B8176
:100BC0005C81C701B6010E9490119B01AC01C30179
:100BD000B2010E94ED0F9B01AC01C501B4010E945E
:100BE000ED0F20E030E040E251E40E9490110E94BD
:100BF000CC108B01C701B6010E94CC10AB01BC0127
:100C0000C801BA010E94790F6983ED81FE81CBC0D2
:100C1000DC01CD90DC9080913E0190913F018C15DC
:100C20009D0508F4DFC0BFEFB9830091400110912A
:100C300041010C151D0508F456C1009142011091A7
:100C400043010C151D0508F453C100914401109196
:100C500045010C151D0508F458C10091460110917D
:100C600047010C151D0508F459C100914801109168
:100C700049010C151D0508F4B7C000914A011091F7
:100C80004B010C151D0508F452C100914C01109147
:100C90004D010C151D0508F453C100914E01109132
:100CA0004F010C151D0508F450C100915001109121
:100CB00051010C151D0508F451C10091520110910C
:100CC00053010C151D0508F456C1009154011091F3
:100CD00055010C151D0508F457C1009156011091DE
:100CE00057010C151D0508F458C1009158011091C9
:100CF00059010C151D0508F459C11AE5B981BF3F0A
:100D000009F459C1ED81FE81BF01FF0F880B990BDA
:100D10000E9404114B015C01F9816F2F70E080E0AB
:100D200090E00E9402116B017C01A501940160E03A
:100D300070E081E694E40E94ED0F9B01AC01C701D5
:100D4000B6010E9490116B017C01612F70E080E080
:100D500090E00E9402112B013C0120E030E04FE2C4
:100D600054E4C501B4010E94ED0F9B01AC01C30125
:100D7000B2010E9490119B01AC01C701B6010E9413
:100D8000EE0F20E030E048E453E40E945A1020E0E7
:100D900030E044E052E40E94EE0F0E94D310862F10
:100DA00008C01982FD01ED3BF2400CF007C18981BA
:100DB0008F5D26960FB6F894DEBF0FBECDBFDF91D4
:100DC000CF911F910F91FF90EF90DF90CF90BF9048
:100DD000AF909F908F907F906F905F904F903F90DB
:100DE0002F90089581E2E5CFF5E03F2EE5E0F0E0B9
:100DF000EE0FFF1FE45CFE4F80819181B801681BFC
:100E0000790B80E090E00E9402119B01AC010E94EE
:100E1000EE0F4B015C01B601DD0C880B990B0E94B3
:100E200004112B013C01B80180E090E00E94021106
:100E30006B017C01632D70E080E090E00E94021164
:100E400020E030E040E05FE30E94901120E030E0DD
:100E5000A9010E94EE0FA50194010E9490119B012F
:100E6000AC01C701B6010E94ED0F9B01AC01C301AB
:100E7000B2010E94ED0F20E030E040E251E40E9418
:100E800090110E94CC108B01C501B4010E94CC10BE
:100E9000AB01BC01C801BA010E94790F162F6F3F48
:100EA00009F02CCF84CF65E085E090E07C01F1E093
:100EB000EF1AF10870E080E090E00E94021120E05B
:100EC00030E040E05FE30E94901120E030E0A901B3
:100ED0000E94EE0F69837A838B839C8349CE61E005
:100EE00081E090E0E3CF33243394E1E0F0E080CF81
:100EF00082E0382EE2E0F0E07BCF62E082E090E03A
:100F0000D5CF63E083E090E0D1CFB3E03B2EE3E0C8
:100F1000F0E06ECF64E084E090E0C8CFA4E03A2E29
:100F2000E4E0F0E065CF66E086E090E0BFCFE6E089
:100F30003E2EE6E0F0E05CCF67E087E090E0B6CFE1
:100F400077E0372EE7E0F0E053CF68E0362EE8E0B8
:100F5000F0E04ECF68E088E090E0A8CF59E0352E71
:100F6000E9E0F0E045CF69E089E090E09FCF6AE0FA
:100F70008AE090E09BCF4AE0342EEAE0F0E038CF00
:100F80006BE08BE090E092CF3BE0332EEBE0F0E0C3
:100F90002FCF6CE08CE090E089CF2CE0322EECE09B
:100FA000F0E026CF6DE08DE090E080CF9DE0392E1F
:100FB000EDE0F0E01DCF81E2810FFBCED101CD90BD
:100FC000DC9080913E0190913F018C159D0508F0C9
:100FD0002CCE10E093CE1F920F920FB60F921124D9
:100FE0002F933F934F935F936F937F938F939F9331
:100FF000AF93BF93EF93FF9320915D0130915E011A
:1010000080915B0190915C01820F931F90935E0130
:1010100080935D018FEF90E090935C0180935B0182
:101020008FEF87BD8091390190913A01A0913B01EA
:10103000B0913C010196A11DB11D8093390190939F
:101040003A01A0933B01B0933C0180913D01811195
:101050000FC080916C0190916D0120915D013091E4
:101060005E018217930720F480911101843089F08A
:10107000FF91EF91BF91AF919F918F917F916F9170
:101080005F914F913F912F910F900FBE0F901F9046
:101090001895E0910401F09105010995009741F33D
:1010A0000E946E0B81110AC00E9449129C013327D5
:1010B00030935C0120935B0187BDDACFE0910201A0
:1010C000F0910301099510925E0110925D01D0CF5D
:1010D00080FF11C0559A81FF11C0549A82FF11C040
:1010E0003B9A83FF11C03A9A84FF11C03D9A85FD57
:1010F00011C03C980895559881FDEFCF549882FD1A
:10110000EFCF3B9883FDEFCF3A9884FDEFCF3D982A
:1011100085FFEFCF3C9A08951F920F920FB60F9262
:1011200011248F939F93109281001092850010924A
:10113000840081E08093160180935A0110923D0152
:1011400010927C0093EA90937A0080937B009F91A9
:101150008F910F900FBE0F901F9018951F920F92B6
:101160000FB60F9211242F933F934F935F936F937A
:101170007F938F939F93AF93BF93CF93DF93EF931F
:10118000FF93209184003091850041E040933D0120
:10119000809116018823A9F1109285001092840095
:1011A0004093810010926E011092160180915A01B5
:1011B0008823A1F080917A0086FDFCCF8091780091
:1011C00090917900909338018093370181E080936A
:1011D0007C0093EA90937A0080937B00FF91EF91DB
:1011E000DF91CF91BF91AF919F918F917F916F913F
:1011F0005F914F913F912F910F900FBE0F901F90D5
:101200001895C901875891098437994008F04FC053
:1012100026583109A4EFB0E00E94930FAA27BB27FC
:10122000883008F47BC04093160180915A018111E7
:1012300052C080913401E82FF0E0E05AFE4F9091C7
:101240006E0190838F5F809334018C3039F6109259
:101250008100109285001092840040935A011092F0
:101260003D01C0916A01D0916B0180E691E00E943E
:10127000B50AC817D90709F0B1CF8091690187FF76
:1012800061C098E7980F933030F0539823981092EC
:10129000B4001092B30090E0FC01E058F109EB308B
:1012A000F10508F09BCFE55CFF4F0C948D0F109279
:1012B00081001092850010928400409316014093A3
:1012C0005A0110923D0110927C0083EA80937A00CB
:1012D00040937B0083CF80917A0086FDFCCF809184
:1012E00078009091790090933601809335011092A7
:1012F0007C0083EA80937A0081E080937B00909168
:101300006E019923D1F01092810010928500109205
:10131000840080935A0110923D0160CF21E030E0BB
:10132000F90102C0EE0FFF1F8A95E2F7CF019091FD
:101330006E01892B80936E0151CF10925A01109249
:1013400034014CCFE0910601F091070165E371E0B3
:1013500080E691E0099542CF80916001823009F4E6
:10136000DDC008F4BAC0833009F4C6C0843009F087
:10137000B1C080910F0190916601833009F4E3C000
:10138000809165011092100123E020930F0180935A
:1013900071019093720180911101863009F41ECF82
:1013A000539A239A1092B4001092B30086E080936F
:1013B000110114CF80911101863099F0539A239A2C
:1013C0001092B4001092B300559854983B983A98F4
:1013D0003D983C9810920F011092100186E0809386
:1013E000110181E090E09C010090600102C0220F99
:1013F000331F0A94E2F780916F019091700182236C
:101400009323892B09F086C010920F01E7CE81E06B
:1014100080931101E3CEE0E0F0E0099580916E0049
:101420008D7F80936E0016BCE0E0F0E70995109286
:101430001101D4CE82E080931101D0CE85E080935B
:101440001101CCCE80911101833009F4C7CE809177
:101450001101843009F4C2CE539A239A1092B40039
:101460001092B30083E080931101B8CE80911101F6
:10147000863009F0B3CE60916F0180EB90E00E945E
:10148000E9136091700181EB90E00E94E913609193
:10149000730185E090E00E94E91360915F0189E0AB
:1014A00090E00E94E913609171018CE090E00E944D
:1014B000E9136091720184E190E00E94E91353986E
:1014C00023981092B4001092B30081E08093110130
:1014D0008091600181115FCF81CE882339F2813004
:1014E000C9F780916101909162019093700180939E
:1014F0006F0110920F014FCF80910F01823071F177
:10150000809164011092100192E090930F018093FA
:101510005F0141CF81E080930F0160CE80910F0188
:10152000813051F0809163011092100191E090930D
:101530000F01809373012FCF80916301909173010C
:101540008913F2CF28CF80917201981319CF80911F
:10155000650120917101821315CF1DCF8091640127
:1015600090915F018913CECF16CFFC0180812FEFC0
:101570003FEF2827022E2295207F2025032E322F91
:1015800022952F700226269532272327220F220F1D
:10159000220F202581812827022E2295207F2025B9
:1015A000032E322F22952F700226269532272327CD
:1015B000220F220F220F202582812827022E22951A
:1015C000207F2025032E322F22952F70022626956C
:1015D00032272327220F220F220F2025838128273D
:1015E000022E2295207F2025032E322F22952F7048
:1015F0000226269532272327220F220F220F20258D
:1016000084812827022E2295207F2025032E322F29
:1016100022952F700226269532272327220F220F8C
:10162000220F202585812827022E2295207F202524
:10163000032E322F22952F7002262695322723273C
:10164000220F220F220F202586812827022E229585
:10165000207F2025032E322F22952F7002262695DB
:1016600032272327220F220F220F202587812827A8
:10167000022E2295207F2025032E322F22952F70B7
:101680000226269532272327220F220F220F2025FC
:1016900080852827022E2295207F2025032E322F99
:1016A00022952F700226269532272327220F220FFC
:1016B000220F20254185C9018427082E8295807F2D
:1016C0008025092E982F82958F7008268695982759
:1016D0008927880F880F880F802508950FB6F89402
:1016E000A4B1209133012A2B24B921E03091330198
:1016F000203029F0000025B1232B25B904C00000BB
:101700000000000000C0000000000000309525B17E
:10171000232325B92EEA2A95F1F72BEE30B735FFB2
:101720000AC0A4B930913301309525B1232325B9DE
:101730000FBE80E0089500002A9581F721E03091E6
:101740003301203029F0000025B1232B25B904C036
:1017500000000000000000C0000000000000309504
:1017600025B1232325B9000024E52A95F1F7FC01D2
:101770008CE0619170E0660F771F616072609AE0A3
:1017800041E050E09A0126233723232B3091330187
:10179000203029F0000025B1232B25B904C000001A
:1017A0000000000000C0000000000000309525B1DE
:1017B000232325B9000021E52A95F1F7440F551F91
:1017C0009A9501F78A95A9F620B7206120BFA4B9A0
:1017D00030913301309525B1232325B90FBE81E027
:1017E0000895A0E1B0E0E7EFFBE00C94A20F7C01CC
:1017F0001B016A01FC0117821682838181FF44C3A9
:101800009E012F5F3F4F3901F7019381F10193FD55
:10181000859193FF81911F01882309F431C385329B
:1018200039F493FD859193FF81911F01853239F43D
:10183000B70190E00E94471356016501E5CF10E023
:10184000512C912CFFE1F915D8F08B3279F038F456
:10185000803279F08332A1F4F92DF0612EC08D32FF
:1018600061F0803369F4292D21602DC0392D32605B
:10187000932E892D8460982E2AC0E92DE86015C02A
:1018800097FC2DC020ED280F2A3088F496FE06C064
:101890003AE0139F200D1124122F19C08AE0589EA0
:1018A000200D1124522EE92DE0629E2E10C08E32A2
:1018B00031F496FCE5C2F92DF0649F2E08C08C36F9
:1018C00021F4292D2068922E02C0883641F4F101BE
:1018D00093FD859193FF81911F018111B3CF9BEB04
:1018E000980F933020F4992D9061805E07C09BE99A
:1018F000980F933008F066C1992D9F7E96FF16E0F1
:101900009F73992E853619F49064992E08C08636F7
:1019100021F4392F3068932E02C01111115097FE17
:1019200007C01C3350F444244394410E27E00BC0FD
:10193000183038F027E017E005C027E09CE3492E77
:1019400002C0212F412C560184E0A80EB11CF601E3
:101950006081718182819381042DA3010E945912BB
:101960006C01F981FC87F0FF02C0F3FF06C091FC17
:1019700006C092FE06C000E205C00DE203C00BE205
:1019800001C000E08C858C7019F001115AC29BC215
:1019900097FE10C04C0CFC85F4FF04C08A81813393
:1019A00009F44A94141474F528E0241578F588E0B5
:1019B000482E2CC096FC2AC0812F90E08C159D05E6
:1019C0009CF03CEFC3163FEFD30674F0892D80687E
:1019D000982E0AC0E2E0F0E0EC0FFD1FE10FF11DD0
:1019E0008081803319F411501111F4CF97FE0EC08D
:1019F00044244394410E812F90E0C816D9062CF45C
:101A00001C1904C04424439401C010E097FE06C092
:101A10001C141D0434F4C601019605C085E090E055
:101A200002C081E090E001110196112331F0212FD5
:101A300030E02F5F3F4F820F931F252D30E082173C
:101A4000930714F4581A01C0512C892D897049F458
:101A5000552039F0B70180E290E00E9447135A9474
:101A6000F7CF002329F0B701802F90E00E944713A1
:101A700093FC09C0552039F0B70180E390E00E9443
:101A800047135A94F7CF97FE4CC04601D7FE02C0C9
:101A9000812C912CC60188199909F301E80FF91FCF
:101AA000FE87ED87960124193109388B2F87012F86
:101AB00010E01195019511093FEF8316930629F463
:101AC000B7018EE290E00E944713C814D9044CF08D
:101AD0008F8598898815990524F4ED85FE85818187
:101AE00001C080E3F1E08F1A91082D853E852F5FBC
:101AF0003F4F3E872D87801691062CF0B70190E06E
:101B00000E944713D9CFC814D90441F49A8196335F
:101B100020F4953319F43C8534FF81E3B70190E05C
:101B20004EC08A81813319F09C859F7E9C87B701C6
:101B300090E00E944713111105C094FC18C085E67F
:101B400090E017C0B7018EE290E00E9447131E5F3D
:101B500082E001E0080FF301E80FF11D8081B70179
:101B600090E00E944713802F0113F3CFE6CF85E466
:101B700090E0B7010E944713D7FC06C0C114D104FE
:101B800041F4EC85E4FF05C0D194C194D1088DE205
:101B900001C08BE2B70190E00E94471380E32AE086
:101BA000C216D1042CF08F5FFAE0CF1AD108F7CF1C
:101BB000B70190E00E944713B701C601C0960E948A
:101BC000471354C1833631F0833779F0833509F0F8
:101BD00056C020C0560132E0A30EB11CF601808130
:101BE000898301E010E0630112C05601F2E0AF0EFC
:101BF000B11CF601C080D18096FE03C0612F70E059
:101C000002C06FEF7FEFC6010E943C138C01F92DDB
:101C1000FF7714C0560122E0A20EB11CF601C0806D
:101C2000D18096FE03C0612F70E002C06FEF7FEF9E
:101C3000C6010E9431138C01F92DF0689F2EF3FD2F
:101C40001AC0852D90E008171907A8F4B70180E2A3
:101C500090E00E9447135A94F4CFF60197FC8591C7
:101C600097FE81916F01B70190E00E9447135110D8
:101C70005A94015011090115110579F7F7C08436FE
:101C800011F0893661F5560197FE09C024E0A20ED5
:101C9000B11CF60160817181828193810AC0F2E0FA
:101CA000AF0EB11CF60160817181072E000C880B0C
:101CB000990BF92DFF769F2E97FF09C0909580957F
:101CC000709561957F4F8F4F9F4FF0689F2E2AE050
:101CD00030E0A3010E948313C82EC6183FC0092D0F
:101CE000853721F40F7E2AE030E01DC0097F8F3652
:101CF00091F018F4883559F0C3C0803719F088374F
:101D000011F0BEC0006104FF09C0046007C094FE6A
:101D100008C0066006C028E030E005C020E130E0E1
:101D200002C020E132E0560107FF09C084E0A80E9E
:101D3000B11CF601608171818281938108C0F2E05B
:101D4000AF0EB11CF6016081718180E090E0A301CB
:101D50000E948313C82EC6180F77902E96FE0BC0D4
:101D6000092D0E7FC11650F494FE0AC092FC08C0E3
:101D7000092D0E7E05C0DC2C092D03C0DC2C01C012
:101D8000D12E04FF0DC0FE01EC0DF11D80818033CA
:101D900011F4097E09C002FF06C0D394D39404C095
:101DA000802F867809F0D39403FD11C000FF06C090
:101DB0001C2DD51480F4150D1D190DC0D51458F423
:101DC000B70180E290E00E944713D394F7CFD51477
:101DD00010F45D1801C0512C04FF10C0B70180E35E
:101DE00090E00E94471302FF17C001FD03C088E77F
:101DF00090E002C088E590E0B7010CC0802F8678A3
:101E000059F001FF02C08BE201C080E207FD8DE2C4
:101E1000B70190E00E944713C11638F4B70180E380
:101E200090E00E9447131150F7CFCA94F301EC0DD4
:101E3000F11D8081B70190E00E944713C110F5CFDA
:101E400015C0F4E0F51560F584E0581A93FE1FC044
:101E5000011127C02C8523FF2AC00CE810E0392D82
:101E60003071932EF8018491811124C0552009F41A
:101E7000E4CCB70180E290E00E9447135A94F6CF79
:101E8000F7018681978126C08FEF9FEF23C0B701AE
:101E900080E290E00E9447135A945110F8CFD8CFB7
:101EA000512CB701802F90E00E944713D3CF00E957
:101EB00010E0D5CF91108052B70190E00E944713F7
:101EC0000F5F1F4FCFCF23E0251510F483E0BDCF68
:101ED000512CC0CF6096E2E10C94BE0F0E94D50158
:101EE00069E271E082EF90E00E94D10280E090E030
:101EF000089597FB072E16F4009407D077FD09D0BC
:101F00000E94D90F07FC05D03EF4909581959F4F14
:101F10000895709561957F4F0895EE0FFF1F05900E
:101F2000F491E02D0994A29FB001B39FC001A39F3B
:101F3000700D811D1124911DB29F700D811D112402
:101F4000911D08952F923F924F925F926F927F92D0
:101F50008F929F92AF92BF92CF92DF92EF92FF92B9
:101F60000F931F93CF93DF93CDB7DEB7CA1BDB0B65
:101F70000FB6F894DEBF0FBECDBF09942A8839880A
:101F800048885F846E847D848C849B84AA84B98411
:101F9000C884DF80EE80FD800C811B81AA81B9811D
:101FA000CE0FD11D0FB6F894DEBF0FBECDBFED0131
:101FB0000895AA1BBB1B51E107C0AA1FBB1FA61790
:101FC000B70710F0A61BB70B881F991F5A95A9F7E2
:101FD00080959095BC01CD0108955058BB27AA2744
:101FE0000E9405100C9456110E94481138F00E946E
:101FF0004F1120F039F49F3F19F426F40C94451149
:102000000EF4E095E7FB0C943F11E92F0E94671155
:1020100058F3BA17620773078407950720F079F41D
:10202000A6F50C9489110EF4E0950B2EBA2FA02D75
:102030000B01B90190010C01CA01A0011124FF2775
:10204000591B99F0593F50F4503E68F11A16F04070
:10205000A22F232F342F4427585FF3CF469537956F
:102060002795A795F0405395C9F77EF41F16BA0B34
:10207000620B730B840BBAF09150A1F0FF0FBB1FE2
:10208000661F771F881FC2F70EC0BA0F621F731F2B
:10209000841F48F4879577956795B795F7959E3F88
:1020A00008F0B0CF9395880F08F09927EE0F979519
:1020B000879508950E946E100C9456110E944F113E
:1020C00058F00E94481140F029F45F3F29F00C9429
:1020D0003F1151110C948A110C9445110E94671103
:1020E00068F39923B1F3552391F3951B550BBB2747
:1020F000AA2762177307840738F09F5F5F4F220F8C
:10210000331F441FAA1FA9F335D00E2E3AF0E0E882
:1021100032D091505040E695001CCAF72BD0FE2FCC
:1021200029D0660F771F881FBB1F26173707480760
:10213000AB07B0E809F0BB0B802DBF01FF27935818
:102140005F4F3AF09E3F510578F00C943F110C948C
:102150008A115F3FE4F3983ED4F3869577956795AF
:10216000B795F7959F5FC9F7880F911D969587954D
:1021700097F90895E1E0660F771F881FBB1F62176C
:1021800073078407BA0720F0621B730B840BBA0B2A
:10219000EE1F88F7E09508950E94D3106894B1115E
:1021A0000C948A1108950E946F1188F09F5798F03F
:1021B000B92F9927B751B0F0E1F0660F771F881F4C
:1021C000991F1AF0BA95C9F714C0B13091F00E9466
:1021D0008911B1E008950C948911672F782F882711
:1021E000B85F39F0B93FCCF3869577956795B3958D
:1021F000D9F73EF490958095709561957F4F8F4FFC
:102200009F4F0895E89409C097FB3EF49095809500
:10221000709561957F4F8F4F9F4F9923A9F0F92FAC
:1022200096E9BB279395F695879577956795B7952A
:10223000F111F8CFFAF4BB0F11F460FF1BC06F5F10
:102240007F4F8F4F9F4F16C0882311F096E911C022
:10225000772321F09EE8872F762F05C0662371F043
:1022600096E8862F70E060E02AF09A95660F771F57
:10227000881FDAF7880F9695879597F9089597F94B
:102280009F6780E870E060E008959FEF80EC08951C
:1022900000240A9416161706180609060895002445
:1022A0000A9412161306140605060895092E0394BF
:1022B000000C11F4882352F0BB0F40F4BF2B11F433
:1022C00060FF04C06F5F7F4F8F4F9F4F089557FD92
:1022D0009058440F551F59F05F3F71F04795880F94
:1022E00097FB991F61F09F3F79F08795089512162B
:1022F00013061406551FF2CF4695F1DF08C01616D7
:1023000017061806991FF1CF869571056105089487
:102310000895E894BB2766277727CB0197F908959E
:102320000E94A3110C9456110E94481138F00E948B
:102330004F1120F0952311F00C943F110C9445118E
:1023400011240C948A110E94671170F3959FC1F3B8
:10235000950F50E0551F629FF001729FBB27F00D53
:10236000B11D639FAA27F00DB11DAA1F649F6627A8
:10237000B00DA11D661F829F2227B00DA11D621FF7
:10238000739FB00DA11D621F839FA00D611D221FB1
:10239000749F3327A00D611D231F849F600D211D95
:1023A000822F762F6A2F11249F5750409AF0F1F018
:1023B00088234AF0EE0FFF1FBB1F661F771F881F81
:1023C00091505040A9F79E3F510580F00C943F1169
:1023D0000C948A115F3FE4F3983ED4F38695779589
:1023E0006795B795F795E7959F5FC1F7FE2B880F27
:1023F000911D9695879597F908958F929F92AF9228
:10240000BF92CF92DF92EF92FF92CF93DF93EC01D6
:10241000688179818A819B816115710581059105AA
:1024200021F464E279ED8BE597E02DE133EF41E0B3
:1024300050E00E94F71349015A019B01AC01A7EA41
:10244000B1E40E9416146B017C01ACEEB4EFA5015F
:1024500094010E942414DC01CB018C0D9D1DAE1D46
:10246000BF1DB7FF03C00197A109B04888839983B6
:10247000AA83BB839F77DF91CF91FF90EF90DF908E
:10248000CF90BF90AF909F908F9008950E94FD11C4
:10249000089588E091E00E94FD110895A0E0B0E069
:1024A0008093080190930901A0930A01B0930B0156
:1024B0000895283008F027E03327DA01990F311DFD
:1024C00087FD916000966105710539F432602E5FD9
:1024D0003D9330E32A95E1F708959F3F30F080382F
:1024E0007105610509F03C5F3C5F3D93913008F058
:1024F0008068911DDF93CF931F930F93FF92EF920C
:10250000192F987F9695E92F96959695E90FFF27B5
:10251000E251FF4F99273327EE24FF24A701E7015B
:1025200005900894079428F4360FE71EF81E491FFB
:10253000511D660F771F881F991F0694A1F70590FC
:10254000079428F4E70EF81E491F561FC11D770F88
:10255000881F991F661F0694A1F70590079428F419
:10256000F80E491F561FC71FD11D880F991F661FE0
:10257000771F0694A1F70590079420F4490F561F82
:10258000C71FD81F990F661F771F881F0694A9F7CA
:1025900084911095177041F0D695C795579547953A
:1025A000F794E7941A95C1F7E4E9F0E06894159080
:1025B000159135916591959105907FE27395E1189C
:1025C000F10A430B560BC90BD009C0F7E10CF11E01
:1025D000431F561FC91FD01D7EF4703311F48A9516
:1025E000E6CFE894015030F0080F0AF400270217F4
:1025F00008F4202F2395022F7A3328F079E37D9376
:102600002A95E9F710C07D932A9589F60694979547
:102610006795379517951794E118F10A430B560BF8
:10262000C90BD00998F023957E9173957A3308F001
:1026300070E37C932013B8F77E9170617D9330F046
:10264000839571E37D9370E32A95E1F71124EF9070
:10265000FF900F911F91CF91DF91992787FD909562
:102660000895FC010590615070400110D8F78095E5
:1026700090958E0F9F1F0895FC016150704001904E
:102680000110D8F7809590958E0F9F1F08950F9396
:102690001F93CF93DF93FB01238121FD03C08FEFB5
:1026A0009FEF2CC022FF16C04681578124813581BF
:1026B0004217530744F4A081B1819D012F5F3F4F22
:1026C000318320838C93268137812F5F3F4F37835F
:1026D000268314C08B01EC01FB010084F185E02D01
:1026E0000995892BE1F6D80116968D919C91179743
:1026F000019617969C938E931697CE01DF91CF91FA
:102700001F910F910895FA01AA27283051F1203125
:1027100081F1E8946F936E7F6E5F7F4F8F4F9F4F75
:10272000AF4FB1E03ED0B4E03CD0670F781F891FB7
:102730009A1FA11D680F791F8A1F911DA11D6A0F85
:10274000711D811D911DA11D20D009F468943F9138
:102750002AE0269F11243019305D3193DEF6CF0137
:102760000895462F4770405D4193B3E00FD0C9F7FD
:10277000F6CF462F4F70405D4A3318F0495D31FD6A
:102780004052419302D0A9F7EACFB4E0A6959795BD
:10279000879577956795BA95C9F700976105710593
:1027A00008959B01AC010A2E0694579547953795DD
:1027B0002795BA95C9F7620F731F841F951FA01D37
:1027C0000895F999FECF92BD81BDF89A992780B5F9
:1027D0000895262FF999FECF1FBA92BD81BD20BD65
:1027E0000FB6F894FA9AF99A0FBE01960895052E3D
:1027F00097FB1EF400940E940E1457FD07D00E9410
:10280000291407FC03D04EF40C940E1450954095F7
:10281000309521953F4F4F4F5F4F0895909580958C
:10282000709561957F4F8F4F9F4F08950E94930F32
:10283000A59F900DB49F900DA49F800D911D112414
:102840000895B7FF0C9416140E941614821B930B64
:102850000895A1E21A2EAA1BBB1BFD010DC0AA1FE1
:10286000BB1FEE1FFF1FA217B307E407F50720F0F9
:10287000A21BB30BE40BF50B661F771F881F991F74
:102880001A9469F760957095809590959B01AC01BD
:0A289000BD01CF010895F894FFCFB9
:0C289A0001AAD401D101D001010000000E
:00000001FF
