:100000000C9438000C9461000C9461000C94610015
:100010000C9461000C9461000C9452010C946100EA
:100020000C9461000C9461000C9461000C943C0AE7
:100030000C9461000C9461000C9493090C94610081
:100040000C9461000C9461000C9461000C946100AC
:100050000C9461000C9461000C9461000C945C0A97
:100060000C9461000C9461006E616E00696E660014
:1000700011241FBECFEFD8E0DEBFCDBF14BE0FB638
:10008000F894A89580916000886180936000109238
:1000900060000FBE11E0A0E0B1E0E6E1FDE202C0C9
:1000A00005900D92AE30B107D9F721E0AEE0B1E096
:1000B00001C01D92A137B207E1F70E9429110C94EB
:1000C000FA150C940000E0910001F09101011082FA
:1000D00008950895089580E090E008950895BF92EE
:1000E000CF92DF92EF92FF920F931F93CF93DF9304
:1000F000F89414B817B81AB815B818B81BB8529AAB
:100100005A9A14BC85E085BD8FEF87BD82E080934D
:100110006E0010928000109281002FE83BE0309337
:1001200089002093880080936F005398239891EA68
:100130009093B0008093B1001092B4001092B3007D
:100140008BE080BF83E080937F0086E080937C001B
:1001500083E880937A0080917A00806480937A00AB
:1001600080917A0086FDFCCF10927C0083EA809318
:100170007A0081E080937B0081E090E00E949015FE
:100180008F3F11F08093660010925C01C1E0C09334
:100190005B01C0935A01109259011092580180E9F5
:1001A00090E00E94901580935701809157018873C9
:1001B0008111C093570110925401109253018FEF97
:1001C00090E0909352018093510110924D01109252
:1001D0004E0110924F011092500181E08093700106
:1001E00082E49FE0909356018093550180EB90E06C
:1001F0000E949015C82F81EB90E00E949015D82F97
:10020000D0934C01C0934B0185E090E00E94901583
:1002100080934A0189E090E00E9490158093490103
:100220008CE090E00E9490158093480184E190E07A
:100230000E949015809347010FE011E08BE2E82EB9
:1002400081E0F82E9BE2C92E91E0D92EC0E2D0E0E9
:10025000CE010E949015B82ECE0101960E949015F5
:100260009B2DF801819391938F01CE01C0960E943E
:100270009015B82ECE01C1960E9490159B2DF701C6
:10028000819391937F012296C016D10609F7789445
:10029000DF91CF911F910F91FF90EF90DF90CF9062
:1002A000BF9008950F920FB60F921F9211248F9353
:1002B0000FB6F894A89580916000886180936000E3
:1002C000109260000FBE8F911F900F900FBE0F9085
:1002D00018953C01EB0110E099249A9484E0C82E13
:1002E00096E0A92E23E8B22E38E1D32E49E2E42E7F
:1002F000E0917001E730E0F7F0E0E758F94E0C9438
:100300004811111102C0F3010995C092700111E06A
:10031000FE010995EDCF80915C01811103C1F89434
:10032000A0927C00B0927A0080917A0080648093E1
:100330007A0080917A0086FDFCCF809178009091C0
:10034000790078948B3AE2E09E070CF0E4C089389B
:10035000F2E09F070CF0EDC0873692400CF4E2C04B
:10036000559A549A3B9A3A9A3D983C98C1CF5598E1
:1003700054983B9A3A9A3D983C98EFECF7E03197C5
:10038000F1F700C00000559854983B983A983D9872
:100390003C98FFEF21EE84E0F15020408040E1F7EF
:1003A00000C00000A5CFF89480B7877F80BF809100
:1003B0007A008F7780937A0014B817B81AB815B8F6
:1003C00018B81BB80FB6F894A895D09260000FBE6D
:1003D000E09260008091600080648093600083B749
:1003E000817F846083BFF89483B7816083BF7894F2
:1003F000889583B78E7F83BF789410925C01529A60
:100400005A9A80917A00806880937A0087E592E01A
:100410000197F1F700C0000080B7886180BF559A4E
:10042000549A3B9A3A9A3D9A3C9AEFE1FEE431970E
:10043000F1F700C0000080915C0181115CC055980B
:1004400054983B983A983D983C9852CF80916E01D1
:10045000811125C01092B3001092B40010926F0168
:1004600047CF4899ECCF559A54983B983A983D9885
:100470003C988FEC97E00197F1F700C00000559889
:1004800054983B983A983D983C989FEFE1EEF4E001
:100490009150E040F040E1F700C0000029CF90917A
:1004A0006E0180916F01981709F422CF80916E013F
:1004B00080936F0180916E01813009F441C0809179
:1004C0006E011092B3009092B400823009F449C0DA
:1004D0009092B3009092B4008FE295E70197F1F704
:1004E00000C0000080914701909148019093B300B3
:1004F0008093B400FDCE559A549A3B983A983D9813
:100500003C98FFEF20E782E0F15020408040E1F787
:1005100000C0000094CF559854983B9A3A9A3D9861
:100520003C98E6CE559A549A3B983A983D983C9818
:10053000DFCE559854983B983A983D9A3C9AD8CE3D
:100540009092B3001092B4008FE295E70197F1F713
:1005500000C0000080914A018093B3001092B40063
:10056000C7CEEFE2F5E73197F1F700C000008091C8
:1005700049011092B3008093B400BACE9C01892B3C
:1005800049F08FEC97E00197F1F700C0000021508F
:100590003040B9F708958093B3006093B400089594
:1005A0008FEF8093B3008093B4008FEC97E00197B6
:1005B000F1F700C000008FEC97E00197F1F700C061
:1005C00000008FEC97E00197F1F700C000008FEC7E
:1005D00097E00197F1F700C000008FEC97E00197DA
:1005E000F1F700C000008FEC97E00197F1F700C031
:1005F00000008FEC97E00197F1F700C000008FEC4E
:1006000097E00197F1F700C000008FEC97E00197A9
:10061000F1F700C000008FEC97E00197F1F700C000
:1006200000008FEC97E00197F1F700C000008FEC1D
:1006300097E00197F1F700C000008FEC97E0019779
:10064000F1F700C000008FEC97E00197F1F700C0D0
:1006500000008FEC97E00197F1F700C000000895CB
:1006600080915C0181111EC0F89487E080937C002A
:1006700083E880937A0080917A00806480937A0086
:1006800080917A0086FDFCCF80917800909179006E
:1006900010927C0023EA20937A0021E020937B00D3
:1006A000789408958FEF9FEF089580915C018111F8
:1006B0001EC0F89488EC80937C0087E880937A00D1
:1006C00080917A00806480937A0080917A0086FD20
:1006D000FCCF809178009091790010927C0023EA01
:1006E00020937A0021E020937B00789408958FEF87
:1006F0009FEF08951F93CF93DF93E0E0F0E080E059
:1007000016E0D3E8C3EA71E0A1E0B0E060E8F89455
:1007100010937C00D0937A0090917A00906490932B
:100720007A0090917A0096FDFCCF2091780030916C
:100730007900217090917A00906490937A00909162
:100740007A0096FDFCCF409178005091790010928C
:100750007C00C0937A0070937B00789441702413DE
:1007600002C06A95A1F6211539F09D010E2E01C037
:10077000220F0A94EAF7822B3196E830F10531F620
:10078000DF91CF911F91089580910201982F990FC9
:10079000990F990F982780916D0121E0280F2093E0
:1007A0006D018695869589279295969597708927EC
:1007B00080930201089580930201089580915C0165
:1007C000811116C0F89486E080937C0083E88093C2
:1007D0007A0080917A00806480937A0080917A0018
:1007E00086FDFCCF809178009091790078940895EF
:1007F0008FEF9FEF08952F923F924F925F926F92EB
:100800007F928F929F92AF92BF92CF92DF92EF92A0
:10081000FF920F931F93CF93DF93CDB7DEB7C659E7
:10082000D1090FB6F894DEBF0FBECDBF6C01FC013D
:1008300022803380F4E82F16F3E03F060CF418C151
:10084000FC010190F081E02DFEA7EDA780910F0142
:1008500090911001FF24FA948E179F0708F4E6C2C6
:1008600080911101909112012DA53EA58217930749
:1008700008F4F5C480911301909114018217930735
:1008800008F4F2C480911501909116018217930724
:1008900008F4EFC480911701909118018217930713
:1008A00008F4ECC48091190190911A018217930702
:1008B00008F4E9C480911B0190911C0182179307F1
:1008C00008F4E6C480911D0190911E0182179307E0
:1008D00008F4E3C480911F019091200182179307CF
:1008E00008F4E8C4809121019091220182179307B6
:1008F00008F442C380912301909124018217930749
:1009000008F4E1C480912501909126018217930794
:1009100008F4DEC480912701909128018217930783
:1009200008F4DFC48091290190912A01821793076E
:1009300008F4E4C49AE59DA7EFEFFE1609F48CC411
:100940006F2D70E080E090E00E94BD124B015C01D1
:10095000FDA56F2F70E080E090E00E94BD126B015A
:100960007C01B101330C880B990B0E94BF128B01E3
:1009700089AB9DA769831A838B839C8329813A81E4
:100980004B815C8160E070E081E694E40E94A811F4
:100990008D829E82AF82B8862D813E814F8158859F
:1009A00069877A878B879C8769857A858B859C8503
:1009B0000E944B134B015C0120E030E04FE254E415
:1009C0000D871E8789A98F879DA5988B6D857E854C
:1009D0008F8598890E94A811C98ADA8AEB8AFC8AD5
:1009E00029893A894B895C896D8B7E8B8F8B988F97
:1009F0006D897E898F89988D0E944B13698F7A8FBC
:100A00008B8F9C8F298D3A8D4B8D5C8D8D8E9E8E1C
:100A1000AF8EB8A26D8D7E8D8F8D98A10E94A91189
:100A200020E030E048E453E469A37AA38BA39CA3BD
:100A300069A17AA18BA19CA10E94151220E030E04F
:100A400044E052E46DA37EA38FA398A76DA17EA17D
:100A50008FA198A50E94A91169A77AA78BA79CA727
:100A600069A57AA58BA59CA50E948E12862FDFC151
:100A700080912B0190912C018215930508F4D1C12E
:100A800020912D0130912E01CC56DF4F39832883E0
:100A9000C459D0402215330508F4FBC180912F01C1
:100AA00090913001CC56DF4F99838883C459D04050
:100AB0008215930508F4F6C3E0913101F0913201FB
:100AC000CC56DF4FF983E883C459D040E215F305D3
:100AD00008F4ECC32091330130913401CC56DF4F40
:100AE00039832883C459D0402215330508F4B0C394
:100AF0008091350190913601CC56DF4F99838883E0
:100B0000C459D0408215930508F4D9C3E091370148
:100B1000F0913801CC56DF4FF983E883C459D040B7
:100B2000E215F30508F4D9C32091390130913A0157
:100B3000CC56DF4F39832883C459D0402215330562
:100B400008F4D4C380913B0190913C01CC56DF4F17
:100B500099838883C459D0408215930508F4CAC389
:100B6000E0913D01F0913E01CC56DF4FF983E883DF
:100B7000C459D040E215F30508F4C5C320913F01E4
:100B800030914001CC56DF4F39832883C459D0407F
:100B90002215330508F4BBC38091410190914201B5
:100BA000CC56DF4F99838883C459D0408215930572
:100BB00008F4B1C3E0914301F0914401CC56DF4FFA
:100BC000F983E883C459D040E215F30508F4A7C3BC
:100BD0002091450130914601CC56DF4F398328835F
:100BE000C459D0406DE00DE010E02215330508F443
:100BF00053C1C757DF4F1882C958D040CF56DF4F77
:100C00001882C159D04030EDCE56DF4F3883C259DB
:100C1000D04080E4CD56DF4F8883C359D0400CE0EC
:100C200010E0A32EB82EF801EE0FFF1FE55DFE4F7A
:100C300080819181CC56DF4F68817981C459D04041
:100C4000681B790B80E090E00E94BD122B013C01F3
:100C5000A30192016DA77EA78FA798AB6DA57EA576
:100C60008FA598A90E94A9118B017C01B101032CC9
:100C7000000C880B990B0E94BF122B013C01CC5633
:100C8000DF4FE881F981C459D040BF0180E090E096
:100C90000E94BD126DA7CB57DF4F7883C558D04057
:100CA000CA56DF4F8883C659D040CC56DF4F988351
:100CB000C459D040C757DF4F8880C958D040CF565D
:100CC000DF4F9880C159D040A501940109AB1AAB00
:100CD000EBAAFCAA69A97AA98BA99CA90E944B132B
:100CE0006DAB7EAB8FAB98AF2DA93EA94FA958AD88
:100CF000FDA5F9AFCB57DF4F8881C558D0408AAFEB
:100D0000CA56DF4F9881C659D0409BAFCC56DF4FB3
:100D1000E881C459D040ECAF69AD7AAD8BAD9CADE4
:100D20000E94A8116DAF7EAF8FAF21969FAF219724
:100D300021962CAD3DAD4EAD5FAD219722964FAEC5
:100D4000229723965FAE239724966FAE249725961D
:100D50007FAE259725966CAD7DAD8EAD9FAD259769
:100D60000E94A81120E030E040E251E426966FAFE7
:100D7000269727967FAF279728968FAF2897299693
:100D80009FAF299729966CAD7DAD8EAD9FAD29970C
:100D90000E944B132A966FAF2A972B967FAF2B9703
:100DA0002C968FAF2C972D969FAF2D972D966CADCF
:100DB0007DAD8EAD9FAD2D970E948712C357DF4F3B
:100DC0006883CD58D040C257DF4F7883CE58D0408B
:100DD0002E960FAF2E972F961FAF2F976096EFAEE0
:100DE00060976196FFAE619761966CAD7DAD8EADFB
:100DF0009FAD61970E948712AB01BC01C357DF4FC3
:100E000088819981CD58D040BA010E943411F62EC4
:100E1000FDEB2F16F2E03F060CF09EC081E2860F3C
:100E200006C0FDEB2F16F2E03F06DCF481E2CA5665
:100E3000DF4F0FB6F894DEBF0FBECDBFDF91CF916D
:100E40001F910F91FF90EF90DF90CF90BF90AF90E8
:100E50009F908F907F906F905F904F903F902F90DA
:100E60000895F6010190F081E02DFEA7EDA7809195
:100E70000F0190911001F12C8E179F0708F0F0CC14
:100E8000C12CD12CE12CF12C812C912CA12CB12C3A
:100E900068CD61E001E010E00150110970E080E0F0
:100EA00090E00E94BD1220E030E040E05FE3CB57CD
:100EB000DF4F6883C558D040CA57DF4F7883C65884
:100EC000D040C957DF4F8883C758D040C857DF4F3D
:100ED0009883C858D040CB57DF4F688179818A8189
:100EE0009B81C558D0400E944B1320E030E0A901FF
:100EF000C757DF4F6883C958D040C657DF4F788344
:100F0000CA58D040C557DF4F8883CB58D040C4570C
:100F1000DF4F9883CC58D040C757DF4F6881798125
:100F20008A819B81C958D0400E94A911C757DF4FC1
:100F30006883C958D040CF56DF4F7883C159D0401D
:100F4000CE56DF4F8883C259D040CD56DF4F9883AD
:100F5000C359D0405C0167CEF6010190F081E02DCD
:100F6000FEA7EDA780910F01909110018E179F07AA
:100F700008F076CC1DA6E0CC79E0672E89E090E001
:100F8000FC01EE0FFF1FE15FFE4F00811181FC01AC
:100F9000EE0FFF1FE35FFE4F80819181B801681B58
:100FA000790B80E090E00E94BD1262966FAF62976D
:100FB00063967FAF639764968FAF649765969FAF94
:100FC000659765962CAD3DAD4EAD5FAD6597669668
:100FD0006FAF669767967FAF679768968FAF689792
:100FE00069969FAF699769966CAD7DAD8EAD9FADEB
:100FF00069970E94A911E62ED72EC82EB92EEDA50D
:10100000FEA5BF01FF0F880B990B0E94BF12A62EF1
:10101000972E882E792EB80180E090E00E94BD12B4
:101020008B0189AB9DA7662D70E080E090E00E9467
:10103000BD1220E030E040E05FE36A966FAF6A9750
:101040006B967FAF6B976C968FAF6C976D969FAFDB
:101050006D976D966CAD7DAD8EAD9FAD6D970E9419
:101060004B1320E030E0A9016E966FAF6E976F963C
:101070007FAF6F97A0968FAFA097A1969FAFA197D4
:10108000A1966CAD7DAD8EAD9FADA1970E94A911CB
:10109000A296EFAEA297A396DFAEA397A496CFAE8B
:1010A000A497A596BFAEA597A5962CAD3DAD4EAD28
:1010B0005FADA597A6966FAFA697A7967FAFA797A8
:1010C000A8968FAFA897A9969FAFA997A9966CAD40
:1010D0007DAD8EAD9FADA9970E944B13AA966FAFC1
:1010E000AA97AB967FAFAB97AC968FAFAC97AD9608
:1010F0009FAFAD97AD962CAD3DAD4EAD5FADAD970D
:10110000AE960FAFAE97AF961FAFAF97F9A9E09627
:10111000FFAFE0978DA5E1968FAFE197E1966CADBB
:101120007DAD8EAD9FADE1970E94A811E2966FAFA5
:10113000E297E3967FAFE397E4968FAFE497E59667
:101140009FAFE597E5962CAD3DAD4EAD5FADE59714
:10115000E696AFAEE697E7969FAEE797E8968FAE36
:10116000E897E9967FAEE997E9966CAD7DAD8EADD7
:101170009FADE9970E94A81120E030E040E251E4E1
:10118000EA966FAFEA97EB967FAFEB97EC968FAF4F
:10119000EC97ED969FAFED97ED966CAD7DAD8EAD76
:1011A0009FADED970E944B13EE966FAFEE97EF96C3
:1011B0007FAFEF97C158DF4F8883CF57D040C058DB
:1011C000DF4F9883C058D040C358DF4F6881798182
:1011D0008A819B81CD57D0400E948712C157DF4F33
:1011E0006883CF58D040C057DF4F7883C059D04074
:1011F000CF57DF4FE882C158D040CE57DF4FD8825B
:10120000C258D040CD57DF4FC882C358D040CC57CA
:10121000DF4FB882C458D040CF57DF4F6881798103
:101220008A819B81C158D0400E948712AB01BC01CA
:10123000C157DF4F88819981CF58D040BA010E94B1
:1012400034116DA781E28F0D6F3F09F075CBEFCDA3
:1012500064E004E010E020CE8DA58F5DE8CD66242B
:10126000639481E090E08CCE82E0682E82E090E092
:1012700087CE03E0602E83E090E082CE14E0612E02
:1012800084E090E07DCEB5E06B2E85E090E078CEF6
:10129000A6E06A2E86E090E073CEF7E06F2E87E03E
:1012A00090E06ECE62E002E010E0F6CD63E003E095
:1012B00010E0F2CDE8E06E2E88E090E061CE65E0CF
:1012C00005E010E0E9CD6AE0662E8AE090E058CEB5
:1012D0005BE0652E8BE090E053CE66E006E010E028
:1012E000DBCD4CE0642E8CE090E04ACE67E007E076
:1012F00010E0D2CD68E008E010E0CECD9DE0692E90
:101300008DE090E03DCE69E009E010E0C5CD6AE0F7
:101310000AE010E0C1CD6BE00BE010E0BDCD6CE069
:101320000CE010E0B9CD1F920F920FB60F9211246E
:101330000F931F932F933F934F935F936F937F93DD
:101340008F939F93AF93BF93CF93DF93EF93FF93CD
:10135000809153019091540120915101309152019B
:10136000820F931F90935401809353018FEF90E06D
:1013700090935201809351018FEF87BD80914D0171
:1013800090914E01A0914F01B09150010196A11D85
:10139000B11D80934D0190934E01A0934F01B093E6
:1013A000500180915C01811579F4209155013091B3
:1013B000560180915301909154012817390720F468
:1013C000809170018430A9F0FF91EF91DF91CF916E
:1013D000BF91AF919F918F917F916F915F914F914D
:1013E0003F912F911F910F910F900FBE0F901F9063
:1013F0001895E0910501F09106010995009721F3F8
:101400000E940D0D811551F0E0910301F09104014E
:1014100009951092540110925301D6CF0E940414E2
:101420008C019927909352018093510107BDCCCF35
:1014300080FF11C0559A81FF11C0549A82FF11C0DC
:101440003B9A83FF11C03A9A84FF11C03D9A85FFF1
:1014500011C03C9A0895559881FDEFCF549882FDB4
:10146000EFCF3B9883FDEFCF3A9884FDEFCF3D98C7
:1014700085FDEFCF3C9808951F921FB61F9211244F
:101480008F939F9310928100109285001092840098
:1014900081E080935B0180935A0110925C0110926D
:1014A0007C0093EA90937A0080937B009F918F91C8
:1014B0001F901FBE1F9018951F920F920FB60F928C
:1014C0001124CF92DF92EF92FF922F933F934F938D
:1014D0005F936F937F938F939F93AF93BF93EF939C
:1014E000FF93209184003091850041E040935C019E
:1014F00080915B018115B9F11092850010928400F2
:10150000409381001092580110925B0180915A0122
:101510008115A1F080917A0086FDFCCF8091780042
:10152000909179009093600180935F0181E08093B6
:101530007C0093EA90937A0080937B00FF91EF9177
:10154000BF91AF919F918F917F916F915F914F91DB
:101550003F912F91FF90EF90DF90CF900F900FBEB3
:101560000F901F901895C9018758910984379940A9
:10157000A0F0109281001092850010928400409398
:101580005B0140935A0110925C0110927C0083EA47
:1015900080937A0040937B00D1CF26583109A4EF85
:1015A000B0E00E944E11883008F465C040935B01A2
:1015B00080915A0181113CC080915901E82FF0E0DF
:1015C000EF59FE4F9091580190838F5F809359019E
:1015D0008C3009F0B3CF10928100109285001092E8
:1015E000840040935A0110925C01E0906B01F090EE
:1015F0006C0181E691E00E94550CE816F90609F0AD
:101600009DCFE0916A01E7FF47C098E79E0F9330B6
:1016100030F0539823981092B4001092B300E05821
:10162000EB3008F08BCFF0E0E058F94E0C94481105
:1016300080917A0086FDFCCF8091780090917900AE
:1016400090935E0180935D0110927C0083EA809309
:101650007A0081E080937B00909158019115B9F058
:1016600010928100109285001092840080935A019C
:1016700010925C0163CF21E030E001C0220F8A9517
:10168000EAF780915801822B8093580157CF10922E
:101690005A011092590152CFE0910701F0910801CF
:1016A0006DE571E081E691E0099548CF8091610197
:1016B000823009F4CBC008F0B2C0811509F477C0BC
:1016C000809162019091630190934C0180934B0152
:1016D00010926E0180917001863009F42FCF539AD9
:1016E000239A1092B4001092B30086E080937001A8
:1016F00025CF80917001863099F0539A239A1092E9
:10170000B4001092B300559854983B983A983D987D
:101710003C9810926E0110926F0186E080937001E8
:101720002091610181E090E002C0880F991F2A9505
:10173000E2F720914B0130914C0182239323892BB6
:1017400099F181E080936E01F9CE82E0809370017F
:10175000F5CE85E080937001F1CE81E08093700139
:10176000EDCE10927001EACE80917001833009F4C1
:10177000E5CE80917001843009F4E0CE539A239A2B
:101780001092B4001092B30083E080937001D6CE23
:10179000E0E0F0E0099580916E008D7F80936E000F
:1017A00016BCE0E0F0E7099510926E01C7CE80917B
:1017B0007001863009F0C2CE60914B0180EB90E061
:1017C0000E94981560914C0181EB90E00E94981561
:1017D00060914A0185E090E00E949815609149016E
:1017E00089E090E00E949815609148018CE090E0BB
:1017F0000E9498156091470184E190E00E9498153D
:10180000539823981092B4001092B30081E0809313
:10181000700180916101811509F490CE5BCF833016
:1018200061F1843009F056CF20916E0180916701FB
:10183000909166012330C1F010926F0123E0209354
:101840006E01909348018093470144CF90916E01BF
:10185000809164019130F9F010926F0191E09093C2
:101860006E0180934A0136CF209147012813E4CFBF
:10187000209148012913E0CF2DCF90916E018091E6
:101880006501923069F010926F0192E090936E01C1
:10189000809349011FCF90914A019813DDCF1ACF51
:1018A000909149019813EFCF15CFFC0120818FEF64
:1018B0009FEF8227082E8295807F8025092E982F02
:1018C00082958F700826869598278927880F880F1C
:1018D000880F802521818227082E8295807F802590
:1018E000092E982F82958F7008268695982789272C
:1018F000880F880F880F802522818227082E8295E5
:10190000807F8025092E982F82958F7008268695D6
:1019100098278927880F880F880F802523818227A1
:10192000082E8295807F8025092E982F82958F70B2
:101930000826869598278927880F880F880F802585
:1019400024818227082E8295807F8025092E982F5A
:1019500082958F700826869598278927880F880F8B
:10196000880F802525818227082E8295807F8025FB
:10197000092E982F82958F7008268695982789279B
:10198000880F880F880F802526818227082E829550
:10199000807F8025092E982F82958F700826869546
:1019A00098278927880F880F880F8025278182270D
:1019B000082E8295807F8025092E982F82958F7022
:1019C0000826869598278927880F880F880F8025F5
:1019D00020858227082E8295807F8025092E982FCA
:1019E00082958F700826869598278927880F880FFB
:1019F000880F802521858227082E8295807F80256B
:101A0000092E982F82958F7008268695982789270A
:101A1000880F880F880F802508950FB6F894A4B119
:101A2000209157012A2B24B921E030915701203011
:101A300029F0000025B1232B25B904C000000000C7
:101A4000000000C0000000000000309525B12323F5
:101A500025B92EEA2A95F1F72BEE30B735FF0AC0EB
:101A6000A4B930915701309525B1232325B90FBE74
:101A700080E0089500002A9581F721E03091570118
:101A8000203029F0000025B1232B25B904C0000027
:101A90000000000000C0000000000000309525B1EB
:101AA000232325B9000024E52A95F1F7FC018CE0F9
:101AB000619170E0660F771F616072609AE041E0AB
:101AC00050E09A0126233723232B309157012030F1
:101AD00029F0000025B1232B25B904C00000000027
:101AE000000000C0000000000000309525B1232355
:101AF00025B9000021E52A95F1F7440F551F9A9565
:101B000001F78A95A9F620B7206120BFA4B93091CA
:101B10005701309525B1232325B90FBE81E00895E3
:101B2000ADE0B0E0E6E9FDE00C945D117C013B0125
:101B30005A01FC0117821682838181FF65C3F70178
:101B40002381F30123FD859123FF81913F018823A8
:101B500009F442C0853239F423FD959123FF919118
:101B60003F01953239F4B70190E00E9402156501FA
:101B70005601E5CF30E010E0912C812CFFE1F81503
:101B800008F43CC09B3279F160F4903271F19332E9
:101B900091F19E3209F048C086FC1EC0689486F818
:101BA00006C09D3229F1903359F5689480F8F3010D
:101BB00023FD959123FF91913F019111DFCF082DD6
:101BC000097F903709F4E2C208F0D8C2983509F4C9
:101BD000DFC29F3609F4E1C2F701868197812D9615
:101BE000E2E10C947911689481F8689482F8DFCF6F
:101BF000689483F8DCCF689484F8D9CF87FC1EC042
:101C000080ED890F8A3028F686FE06C04AE0149FD0
:101C1000800D1124182FCBCF5AE0959E800D1124F2
:101C2000982E689485F8C3CF9C3619F4689487F889
:101C3000BECF9C3411F1983609F4B9CF3323F9F0B3
:101C4000892F8F7D8554833008F0A9C1650188E014
:101C5000C80ED11C8FE3898301E010E0FE013196AC
:101C60005F01E89487F883FC06C0892D90E008178F
:101C7000190708F447C2592C5AC231E098CF8BEBB0
:101C8000890F833008F041C0689484F8905E86FE26
:101C900016E0F82DFF738F2E953609F03EC068943C
:101CA00086F887FE44C0812F1C3308F08BE3222482
:101CB0002394280E27E0F501619171918191919112
:101CC0006F01022DAE014F5F5F4F0E9414145C0143
:101CD000498040FE03C00DE243FE09C00BE281FCD7
:101CE00006C082FA002700F90295000F007EF42D4D
:101CF000FC705F2EFF23C1F1011189C223E0512C3A
:101D0000291508F09CC283E087C28BE9890F8330D4
:101D100008F045C1E89484F8BACF963619F468946F
:101D200087F8BFCF112309F4BCCF1150BACF212FB0
:101D3000183010F027E017E0212CBDCF8110805221
:101D4000B70190E00E9402150F5F1F4FF8018491C8
:101D50008111F4CF552009F40BCFB70180E290E058
:101D60000E9402155A94F6CF87FE34C0822D8A0D48
:101D700044FE04C09A81913309F4815022242394B3
:101D8000181634F4282EF8E0F81710F488E0282EFE
:101D900087FE4AC0C501B7FE02C080E090E0019610
:101DA00001110196112331F0212F30E02F5F3F4FB9
:101DB000820F931F292D30E08217930714F4592CBA
:101DC000581A882D8970811139C0511030C00023F4
:101DD000F1F136C086FCDCCFE12FF0E0EA15FB051F
:101DE0003CF02CEFA2162FEFB20614F0689487F89F
:101DF000329641E050E04C0F5D1FE40FF51F01C02B
:101E00001150112319F082918033D1F387FE0CC059
:101E100022242394210E812F90E01A19A816B906C6
:101E20000CF4B6CF10E0B4CF85E090E0B9CFB701A5
:101E300080E290E00E9402155A94C7CF002329F057
:101E4000B701802F90E00E94021583FC02C0511060
:101E50003EC087FE56C04501B7FE02C0812C912CC2
:101E6000C50188199909E1E0F0E0EC0FFD1FE80FCA
:101E7000F91FFD87EC879501221931091901012FFE
:101E800010E0119501951109A814B9043CF128142A
:101E9000390424F5EC85FD858181F1E08F1A9108E4
:101EA0002C853D852F5F3F4F3D872C8780169106FF
:101EB000BCF0B70190E00E9402153FEF8316930635
:101EC00019F7B7018EE290E00E940215DDCFB7014D
:101ED00080E390E00E9402155A94B9CF80E3DDCFF1
:101EE000A814B90439F49A81963348F4953311F45F
:101EF00044FE05C0B70190E00E9402152BCF81E39C
:101F0000F9CF8A81813311F0E89444F8B70190E069
:101F10000E940215111125C085E490E084FC02C0E6
:101F200085E690E0B7010E940215B7FC05C0A11438
:101F3000B10471F544FE2CC0B194A194B1088DE2B6
:101F4000B70190E00E94021580E35AE0A516B104A3
:101F50000CF5B70190E00E940215B701C501C096CB
:101F6000CBCFB7018EE290E00E9402151E5F02E027
:101F7000802F0F5FE1E0F0E0EC0FFD1FE80FF11D97
:101F80008081B70190E00E9402150113F1CFC4CF08
:101F90008BE2D6CF8F5F4AE0A41AB108D6CF933632
:101FA00009F482C0933709F48DC0933509F499C0C0
:101FB000943619F0993609F0C6C0F50187FEBBC00A
:101FC00061917191819191916F01F82DFF768F2E22
:101FD00097FF09C090958095709561957F4F8F4FC1
:101FE0009F4F689487F82AE030E0AE014F5F5F4F63
:101FF0005A010E943215B82EBA185B2C082D86FEA5
:102000000AC00E7FB11638F484FE04C082FC02C000
:10201000082D0E7E512E04FFD0C0FE01EB0DF11DE8
:102020008081803309F0C2C0097E03FD0EC000FF2D
:10203000D3C01B2D591418F4190D1519592C892DBD
:102040008519951408F480E0580E591408F0C6C09C
:102050009518592C04FFC4C0B70180E390E00E949A
:10206000021502FF09C088E590E001FD02C088E783
:1020700090E0B7010E940215B11608F4BEC0BA94F0
:102080000B2D10E00F5F1F4FCE0101965C01080F72
:10209000191FF80182918F01B70190E00E9402158B
:1020A000A016B106B1F756CE650182E0C80ED11C6C
:1020B000F5018081898301E010E09E012F5F3F4F91
:1020C0005901CFCDF501A190B1906F01612F70E062
:1020D00086FC02C06FEF7FEFC5010E94F7148C01F0
:1020E000C0CDF501A190B1906F01612F70E086FC29
:1020F00002C06FEF7FEFC5010E94EC148C01689461
:1021000087F8B1CDB70180E290E00E9402159A9461
:10211000ACCDF50187FC859187FE81915F01B70108
:1021200090E00E94021551105A94015011090115B6
:10213000110579F70FCE619171916F01072E000C97
:10214000880B990B42CF082D0F7E2AE030E095379F
:1021500009F035CDF50107FF23C06191719181919F
:1021600091916F01AE014F5F5F4F5A010E9432158E
:10217000B82EBA18802EE89487F83FCF983709F028
:102180002BCD04FD046020E130E0E4CF0061F9CF05
:1021900084FC066020E132E0DDCF28E030E0DACFD9
:1021A000619171916F0180E090E0DCCF02FD02C08F
:1021B00053943BCF5394539438CF802F8678882301
:1021C00009F433CFF5CFB70180E290E00E94021509
:1021D000A394A914C0F333CFA52CFBCF512C3ACF35
:1021E000802F8678882309F447CF80E201FD8BE2B7
:1021F00007FD8DE2B70190E03DCFB70180E390E0AD
:102200000E940215115038CF8FEF9FEFE8CCF4E019
:10221000512CF91578F484E0592C581A83FC08C025
:10222000B70180E290E00E9402155A945110F8CF55
:10223000002329F0B701802F90E00E94021508E6E4
:1022400010E043FC02C00CE610E0282D2071822E25
:102250007DCD0E946F0069E670E083E690E00E9409
:10226000690180E090E0089597FB072E16F4009432
:1022700007D077FD09D00E94941107FC05D03EF4E9
:10228000909581959F4F0895709561957F4F089522
:10229000EE0FFF1F0590F491E02D0994A29FB0016D
:1022A000B39FC001A39F700D811D1124911DB29F8A
:1022B000700D811D1124911D08952F923F924F9210
:1022C0005F926F927F928F929F92AF92BF92CF92C6
:1022D000DF92EF92FF920F931F93CF93DF93CDB7CF
:1022E000DEB7CA1BDB0B0FB6F894DEBF0FBECDBF47
:1022F00009942A88398848885F846E847D848C8418
:102300009B84AA84B984C884DF80EE80FD800C8120
:102310001B81AA81B981CE0FD11D0FB6F894DEBF03
:102320000FBECDBFED010895AA1BBB1B51E107C035
:10233000AA1FBB1FA617B70710F0A61BB70B881F55
:10234000991F5A95A9F780959095BC01CD010895E4
:102350005058BB27AA270E94C0110C9411130E9449
:10236000031338F00E940A1320F039F49F3F19F448
:1023700026F40C9400130EF4E095E7FB0C94FA128B
:10238000E92F0E94221358F3BA17620773078407D4
:10239000950720F079F4A6F50C9444130EF4E0951B
:1023A0000B2EBA2FA02D0B01B90190010C01CA010F
:1023B000A0011124FF27591B99F0593F50F4503EBA
:1023C00068F11A16F040A22F232F342F4427585FAC
:1023D000F3CF469537952795A795F0405395C9F7C4
:1023E0007EF41F16BA0B620B730B840BBAF091507C
:1023F000A1F0FF0FBB1F661F771F881FC2F70EC01B
:10240000BA0F621F731F841F48F4879577956795ED
:10241000B795F7959E3F08F0B0CF9395880F08F0D9
:102420009927EE0F9795879508950E9429120C948D
:1024300011130E940A1358F00E94031340F029F46C
:102440005F3F29F00C94FA1251110C9445130C942F
:1024500000130E94221368F39923B1F3552391F3DB
:10246000951B550BBB27AA2762177307840738F003
:102470009F5F5F4F220F331F441FAA1FA9F335D060
:102480000E2E3AF0E0E832D091505040E695001C14
:10249000CAF72BD0FE2F29D0660F771F881FBB1FCE
:1024A000261737074807AB07B0E809F0BB0B802DAC
:1024B000BF01FF2793585F4F3AF09E3F510578F0D8
:1024C0000C94FA120C9445135F3FE4F3983ED4F356
:1024D000869577956795B795F7959F5FC9F7880FAC
:1024E000911D9695879597F90895E1E0660F771FFE
:1024F000881FBB1F621773078407BA0720F0621B8F
:10250000730B840BBA0BEE1F88F7E09508950E94B9
:102510008E126894B1110C94451308950E942A13E9
:1025200088F09F5798F0B92F9927B751B0F0E1F094
:10253000660F771F881F991F1AF0BA95C9F714C044
:10254000B13091F00E944413B1E008950C9444130B
:10255000672F782F8827B85F39F0B93FCCF386957D
:1025600077956795B395D9F73EF4909580957095DA
:1025700061957F4F8F4F9F4F0895E89409C097FB57
:102580003EF490958095709561957F4F8F4F9F4F4A
:102590009923A9F0F92F96E9BB279395F69587958E
:1025A00077956795B795F111F8CFFAF4BB0F11F451
:1025B00060FF1BC06F5F7F4F8F4F9F4F16C08823F8
:1025C00011F096E911C0772321F09EE8872F762F2E
:1025D00005C0662371F096E8862F70E060E02AF06F
:1025E0009A95660F771F881FDAF7880F969587955B
:1025F00097F9089597F99F6780E870E060E0089583
:102600009FEF80EC089500240A941616170618060A
:102610000906089500240A941216130614060506E6
:102620000895092E0394000C11F4882352F0BB0F77
:1026300040F4BF2B11F460FF04C06F5F7F4F8F4FDA
:102640009F4F089557FD9058440F551F59F05F3F15
:1026500071F04795880F97FB991F61F09F3F79F0C4
:1026600087950895121613061406551FF2CF469546
:10267000F1DF08C0161617061806991FF1CF8695C8
:102680007105610508940895E894BB2766277727AC
:10269000CB0197F908950E945E130C9411130E94C8
:1026A000031338F00E940A1320F0952311F00C94C4
:1026B000FA120C94001311240C9445130E94221357
:1026C00070F3959FC1F3950F50E0551F629FF00185
:1026D000729FBB27F00DB11D639FAA27F00DB11D9E
:1026E000AA1F649F6627B00DA11D661F829F222727
:1026F000B00DA11D621F739FB00DA11D621F839FAE
:10270000A00D611D221F749F3327A00D611D231F83
:10271000849F600D211D822F762F6A2F11249F57D1
:1027200050409AF0F1F088234AF0EE0FFF1FBB1FD4
:10273000661F771F881F91505040A9F79E3F510593
:1027400080F00C94FA120C9445135F3FE4F3983E2A
:10275000D4F3869577956795B795F795E7959F5F3D
:10276000C1F7FE2B880F911D9695879597F90895CF
:102770008F929F92AF92BF92CF92DF92EF92FF9291
:10278000CF93DF93EC01688179818A819B81611508
:1027900071058105910521F464E279ED8BE597E0FF
:1027A0002DE133EF41E050E00E94A61549015A01A6
:1027B0009B01AC01A7EAB1E40E94C5156B017C0145
:1027C000ACEEB4EFA50194010E94D315DC01CB015E
:1027D0008C0D9D1DAE1DBF1DB7FF03C00197A10944
:1027E000B04888839983AA83BB839F77DF91CF9179
:1027F000FF90EF90DF90CF90BF90AF909F908F9021
:1028000008950E94B813089589E091E00E94B813DA
:102810000895A0E0B0E08093090190930A01A0938D
:102820000B01B0930C010895283008F027E03327FE
:10283000DA01990F311D87FD9160009661057105E0
:1028400039F432602E5F3D9330E32A95E1F7089525
:102850009F3F30F080387105610509F03C5F3C5FB7
:102860003D93913008F08068911DDF93CF931F93C3
:102870000F93FF92EF92192F987F9695E92F9695D7
:102880009695E90FFF27EE5AF34D99273327EE244B
:10289000FF24A701E70105900894079428F4360F58
:1028A000E71EF81E491F511D660F771F881F991FCD
:1028B0000694A1F70590079428F4E70EF81E491F27
:1028C000561FC11D770F881F991F661F0694A1F719
:1028D0000590079428F4F80E491F561FC71FD11DF5
:1028E000880F991F661F771F0694A1F7059007941C
:1028F00020F4490F561FC71FD81F990F661F771F57
:10290000881F0694A9F784911095177041F0D69509
:10291000C79557954795F794E7941A95C1F7E8EF4F
:10292000FBE268941590159135916591959105900C
:102930007FE27395E118F10A430B560BC90BD009DE
:10294000C0F7E10CF11E431F561FC91FD01D7EF4B6
:10295000703311F48A95E6CFE894015030F0080FF7
:102960000AF40027021708F4202F2395022F7A3348
:1029700028F079E37D932A95E9F710C07D932A9595
:1029800089F6069497956795379517951794E118EA
:10299000F10A430B560BC90BD00998F023957E9191
:1029A00073957A3308F070E37C932013B8F77E9127
:1029B00070617D9330F0839571E37D9370E32A9588
:1029C000E1F71124EF90FF900F911F91CF91DF91CC
:1029D000992787FD90950895FC01059061507040FE
:1029E0000110D8F7809590958E0F9F1F0895FC01D8
:1029F0006150704001900110D8F7809590958E0F2E
:102A00009F1F08950F931F93CF93DF93182F092FC4
:102A1000EB018B8181FD09C01FEF0FEF812F902FFC
:102A2000DF91CF911F910F91089582FF14C02E81E5
:102A30003F818C819D81281739073CF4E881F98119
:102A4000CF0101969983888310838E819F8101969F
:102A50009F838E83E3CFE885F985812F0995892BA4
:102A6000A1F3DACFFA01AA27283051F1203181F100
:102A7000E8946F936E7F6E5F7F4F8F4F9F4FAF4F86
:102A8000B1E03ED0B4E03CD0670F781F891F9A1F99
:102A9000A11D680F791F8A1F911DA11D6A0F711D4D
:102AA000811D911DA11D20D009F468943F912AE059
:102AB000269F11243019305D3193DEF6CF01089541
:102AC000462F4770405D4193B3E00FD0C9F7F6CF72
:102AD000462F4F70405D4A3318F0495D31FD40523A
:102AE000419302D0A9F7EACFB4E0A69597958795D0
:102AF00077956795BA95C9F70097610571050895AF
:102B00009B01AC010A2E069457954795379527955A
:102B1000BA95C9F7620F731F841F951FA01D0895F2
:102B2000F999FECF92BD81BDF89A992780B5089595
:102B3000262FF999FECF1FBA92BD81BD20BD0FB6D9
:102B4000F894FA9AF99A0FBE01960895052E97FB0C
:102B50001EF400940E94BD1557FD07D00E94D815A1
:102B600007FC03D04EF40C94BD155095409530955C
:102B700021953F4F4F4F5F4F0895909580957095E9
:102B800061957F4F8F4F9F4F08950E944E11A59FD3
:102B9000900DB49F900DA49F800D911D1124089558
:102BA000B7FF0C94C5150E94C515821B930B0895A1
:102BB000A1E21A2EAA1BBB1BFD010DC0AA1FBB1F41
:102BC000EE1FFF1FA217B307E407F50720F0A21BB3
:102BD000B30BE40BF50B661F771F881F991F1A9420
:102BE00069F760957095809590959B01AC01BD014A
:102BF000CF010895F894FFCF00407A10F35A00A057
:102C0000724E18090010A5D4E80000E876481700B5
:102C100000E40B54020000CA9A3B000000E1F505F5
:102C2000000080969800000040420F000000A0863F
:102C300001000000102700000000E8030000000071
:102C40006400000000000A00000000000100000015
:102C500000002C76D888DC674F0823DFC1DFAE592F
:102C6000E1B1B796E5E3E453C63AE651997696E8C2
:102C7000E6C28426EB898C9B62ED407C6FFCEFBC46
:102C80009C9F40F2BAA56FA5F490055A2AF75C9371
:102C90006B6CF9676DC11BFCE0E40D47FEF520E6A7
:102CA000B500D0ED902E0300943577050080841E8A
:102CB000080000204E0A000000C80C333333330FE5
:102CC000986E12831141EF8D2114893BE65516CF82
:102CD000FEE6DB18D1844B381BF77C1D901DA4BB8E
:102CE000E424203284725E228100C9F124ECA1E543
:102CF0003D27D301B7018B018101880131022602F2
:102D0000CB0B9E0A9E0AC80BB10BAD0BA90BA50BF2
:062D1000B40B790B560B19
:0E2D16000E01AA6E006B006A000100000000B2
:00000001FF
